{
  "contractName": "Attendee",
  "abi": [
    {
      "constant": true,
      "inputs": [],
      "name": "numOfAttended",
      "outputs": [
        {
          "name": "",
          "type": "uint256"
        }
      ],
      "payable": false,
      "stateMutability": "view",
      "type": "function"
    },
    {
      "constant": true,
      "inputs": [
        {
          "name": "",
          "type": "address"
        }
      ],
      "name": "attendeeMap",
      "outputs": [
        {
          "name": "addr",
          "type": "address"
        },
        {
          "name": "isAttended",
          "type": "bool"
        },
        {
          "name": "isReturned",
          "type": "bool"
        }
      ],
      "payable": false,
      "stateMutability": "view",
      "type": "function"
    },
    {
      "constant": true,
      "inputs": [],
      "name": "owner",
      "outputs": [
        {
          "name": "",
          "type": "address"
        }
      ],
      "payable": false,
      "stateMutability": "view",
      "type": "function"
    },
    {
      "constant": true,
      "inputs": [],
      "name": "totalOfAttendee",
      "outputs": [
        {
          "name": "",
          "type": "uint256"
        }
      ],
      "payable": false,
      "stateMutability": "view",
      "type": "function"
    },
    {
      "constant": true,
      "inputs": [],
      "name": "numOfApplied",
      "outputs": [
        {
          "name": "",
          "type": "uint256"
        }
      ],
      "payable": false,
      "stateMutability": "view",
      "type": "function"
    },
    {
      "constant": false,
      "inputs": [
        {
          "name": "_newOwner",
          "type": "address"
        }
      ],
      "name": "changeOwner",
      "outputs": [],
      "payable": false,
      "stateMutability": "nonpayable",
      "type": "function"
    },
    {
      "inputs": [
        {
          "name": "_totalOfAttendee",
          "type": "uint256"
        }
      ],
      "payable": false,
      "stateMutability": "nonpayable",
      "type": "constructor"
    },
    {
      "constant": true,
      "inputs": [
        {
          "name": "_addr",
          "type": "address"
        }
      ],
      "name": "isApplied",
      "outputs": [
        {
          "name": "",
          "type": "bool"
        }
      ],
      "payable": false,
      "stateMutability": "view",
      "type": "function"
    },
    {
      "constant": true,
      "inputs": [
        {
          "name": "_addr",
          "type": "address"
        }
      ],
      "name": "isAttended",
      "outputs": [
        {
          "name": "",
          "type": "bool"
        }
      ],
      "payable": false,
      "stateMutability": "view",
      "type": "function"
    },
    {
      "constant": true,
      "inputs": [
        {
          "name": "_addr",
          "type": "address"
        }
      ],
      "name": "isReturned",
      "outputs": [
        {
          "name": "",
          "type": "bool"
        }
      ],
      "payable": false,
      "stateMutability": "view",
      "type": "function"
    }
  ],
  "bytecode": "0x608060405234801561001057600080fd5b506040516020806106d083398101806040528101908080519060200190929190505050336000806101000a81548173ffffffffffffffffffffffffffffffffffffffff021916908373ffffffffffffffffffffffffffffffffffffffff16021790555060008111151561008257600080fd5b8060028190555050610637806100996000396000f300608060405260043610610099576000357c0100000000000000000000000000000000000000000000000000000000900463ffffffff16806316ae75d61461009e578063686bdf19146100c95780638da5cb5b1461016257806393831782146101b957806399d23ef4146101e4578063a07f3a561461020f578063a6f9dae11461026a578063b0c15713146102ad578063ba9941cb14610308575b600080fd5b3480156100aa57600080fd5b506100b3610363565b6040518082815260200191505060405180910390f35b3480156100d557600080fd5b5061010a600480360381019080803573ffffffffffffffffffffffffffffffffffffffff169060200190929190505050610369565b604051808473ffffffffffffffffffffffffffffffffffffffff1673ffffffffffffffffffffffffffffffffffffffff1681526020018315151515815260200182151515158152602001935050505060405180910390f35b34801561016e57600080fd5b506101776103cd565b604051808273ffffffffffffffffffffffffffffffffffffffff1673ffffffffffffffffffffffffffffffffffffffff16815260200191505060405180910390f35b3480156101c557600080fd5b506101ce6103f2565b6040518082815260200191505060405180910390f35b3480156101f057600080fd5b506101f96103f8565b6040518082815260200191505060405180910390f35b34801561021b57600080fd5b50610250600480360381019080803573ffffffffffffffffffffffffffffffffffffffff1690602001909291905050506103fe565b604051808215151515815260200191505060405180910390f35b34801561027657600080fd5b506102ab600480360381019080803573ffffffffffffffffffffffffffffffffffffffff169060200190929190505050610468565b005b3480156102b957600080fd5b506102ee600480360381019080803573ffffffffffffffffffffffffffffffffffffffff169060200190929190505050610506565b604051808215151515815260200191505060405180910390f35b34801561031457600080fd5b50610349600480360381019080803573ffffffffffffffffffffffffffffffffffffffff1690602001909291905050506105a1565b604051808215151515815260200191505060405180910390f35b60045481565b60016020528060005260406000206000915090508060000160009054906101000a900473ffffffffffffffffffffffffffffffffffffffff16908060000160149054906101000a900460ff16908060000160159054906101000a900460ff16905083565b6000809054906101000a900473ffffffffffffffffffffffffffffffffffffffff1681565b60025481565b60035481565b600061040982610506565b80156104615750600160008373ffffffffffffffffffffffffffffffffffffffff1673ffffffffffffffffffffffffffffffffffffffff16815260200190815260200160002060000160149054906101000a900460ff165b9050919050565b6000809054906101000a900473ffffffffffffffffffffffffffffffffffffffff1673ffffffffffffffffffffffffffffffffffffffff163373ffffffffffffffffffffffffffffffffffffffff161415156104c357600080fd5b806000806101000a81548173ffffffffffffffffffffffffffffffffffffffff021916908373ffffffffffffffffffffffffffffffffffffffff16021790555050565b60008073ffffffffffffffffffffffffffffffffffffffff16600160008473ffffffffffffffffffffffffffffffffffffffff1673ffffffffffffffffffffffffffffffffffffffff16815260200190815260200160002060000160009054906101000a900473ffffffffffffffffffffffffffffffffffffffff1673ffffffffffffffffffffffffffffffffffffffff1614159050919050565b60006105ac82610506565b80156106045750600160008373ffffffffffffffffffffffffffffffffffffffff1673ffffffffffffffffffffffffffffffffffffffff16815260200190815260200160002060000160159054906101000a900460ff165b90509190505600a165627a7a72305820c43357a62331ecd2df853723caf04ede64c5f8ab8f460b9921ed8b86d4897e9f0029",
  "source": "pragma solidity ^0.4.23;\n\nimport \"./Owner.sol\";\n\n\n/**\n* @title Attendee\n* attendees of parity\n*/\ncontract Attendee  is Owner{\n\n    struct AttendeeInfo {//参会者信息\n        address addr;\n        bool isAttended;\n        bool isReturned;\n    }\n\n    mapping (address => AttendeeInfo) public attendeeMap;//参会者集合\n\n    uint256 public totalOfAttendee;//参会人数限制\n    uint256 public numOfApplied;//已报名的人数\n    uint256 public numOfAttended;//已参会人数\n\n\n    constructor (uint256 _totalOfAttendee) public {\n        require(_totalOfAttendee > 0);\n\n        totalOfAttendee = _totalOfAttendee;\n    }\n\n\n    function isApplied(address _addr) view public returns (bool){ //是否已经申请报名\n        return attendeeMap[_addr].addr != address(0);\n    }\n\n    function isAttended(address _addr) view public returns (bool){//是否已经参加会议\n        return isApplied(_addr) && attendeeMap[_addr].isAttended;\n    }\n\n    function isReturned(address _addr) view public returns (bool){//是否已经返回押金\n        return isApplied(_addr) && attendeeMap[_addr].isReturned;\n    }\n\n\n    function updateAttendeeApplied(address _address) internal{//参会人申请注册\n        require(numOfApplied < totalOfAttendee);\n\n        numOfApplied++;\n        attendeeMap[_address] = AttendeeInfo(_address, false, false);\n    }\n\n    function updateAttendeeIsReturned(address _address)  internal {//更新是否返回押金状态\n\n        require(!isReturned(_address));\n\n        attendeeMap[_address].isReturned = true;\n    }\n\n\n    function updateAttendeeTotalOfAttendee(uint256 _totalOfAttendee) internal {//设置参会者人数限制\n        require(_totalOfAttendee >= numOfApplied);\n\n        totalOfAttendee = _totalOfAttendee;\n    }\n\n\n\n    function updateAttendeeAttendedList(address[] _addressList) internal {//参会人出席会议确认\n        for(uint i=0;i<_addressList.length;i++){\n            address _address = _addressList[i];\n            require(isApplied(_address));\n            require(!isAttended(_address));\n\n            attendeeMap[_address].isAttended = true;\n            numOfAttended++;\n        }\n    }\n\n\n\n}\n",
  "sourcePath": "/Users/guohuaquan/program/contractparty/solidity/contracts/src/role/Attendee.sol",
  "compiler": {
    "name": "solc",
    "version": "0.4.24+commit.e67f0147.Emscripten.clang"
  },
  "schemaVersion": "2.0.0",
  "updatedAt": "2018-06-15T03:06:23.268Z"
}