{
  "contractName": "Party",
  "abi": [
    {
      "constant": true,
      "inputs": [],
      "name": "name",
      "outputs": [
        {
          "name": "",
          "type": "string"
        }
      ],
      "payable": false,
      "stateMutability": "view",
      "type": "function"
    },
    {
      "constant": true,
      "inputs": [],
      "name": "isCanceled",
      "outputs": [
        {
          "name": "",
          "type": "bool"
        }
      ],
      "payable": false,
      "stateMutability": "view",
      "type": "function"
    },
    {
      "constant": true,
      "inputs": [],
      "name": "numOfAttended",
      "outputs": [
        {
          "name": "",
          "type": "uint256"
        }
      ],
      "payable": false,
      "stateMutability": "view",
      "type": "function"
    },
    {
      "constant": true,
      "inputs": [
        {
          "name": "_addr",
          "type": "address"
        }
      ],
      "name": "isAdmin",
      "outputs": [
        {
          "name": "",
          "type": "bool"
        }
      ],
      "payable": false,
      "stateMutability": "view",
      "type": "function"
    },
    {
      "constant": true,
      "inputs": [],
      "name": "returnBonus",
      "outputs": [
        {
          "name": "",
          "type": "uint256"
        }
      ],
      "payable": false,
      "stateMutability": "view",
      "type": "function"
    },
    {
      "constant": true,
      "inputs": [
        {
          "name": "",
          "type": "address"
        }
      ],
      "name": "attendeeMap",
      "outputs": [
        {
          "name": "addr",
          "type": "address"
        },
        {
          "name": "isAttended",
          "type": "bool"
        },
        {
          "name": "isReturned",
          "type": "bool"
        }
      ],
      "payable": false,
      "stateMutability": "view",
      "type": "function"
    },
    {
      "constant": false,
      "inputs": [
        {
          "name": "newAdmin",
          "type": "address"
        }
      ],
      "name": "grant",
      "outputs": [],
      "payable": false,
      "stateMutability": "nonpayable",
      "type": "function"
    },
    {
      "constant": true,
      "inputs": [],
      "name": "liabBalance",
      "outputs": [
        {
          "name": "",
          "type": "uint256"
        }
      ],
      "payable": false,
      "stateMutability": "view",
      "type": "function"
    },
    {
      "constant": false,
      "inputs": [
        {
          "name": "oldAdmin",
          "type": "address"
        }
      ],
      "name": "revoke",
      "outputs": [],
      "payable": false,
      "stateMutability": "nonpayable",
      "type": "function"
    },
    {
      "constant": true,
      "inputs": [],
      "name": "owner",
      "outputs": [
        {
          "name": "",
          "type": "address"
        }
      ],
      "payable": false,
      "stateMutability": "view",
      "type": "function"
    },
    {
      "constant": true,
      "inputs": [],
      "name": "totalOfAttendee",
      "outputs": [
        {
          "name": "",
          "type": "uint256"
        }
      ],
      "payable": false,
      "stateMutability": "view",
      "type": "function"
    },
    {
      "constant": true,
      "inputs": [],
      "name": "numOfApplied",
      "outputs": [
        {
          "name": "",
          "type": "uint256"
        }
      ],
      "payable": false,
      "stateMutability": "view",
      "type": "function"
    },
    {
      "constant": true,
      "inputs": [
        {
          "name": "_addr",
          "type": "address"
        }
      ],
      "name": "isAttended",
      "outputs": [
        {
          "name": "",
          "type": "bool"
        }
      ],
      "payable": false,
      "stateMutability": "view",
      "type": "function"
    },
    {
      "constant": true,
      "inputs": [],
      "name": "isEnded",
      "outputs": [
        {
          "name": "",
          "type": "bool"
        }
      ],
      "payable": false,
      "stateMutability": "view",
      "type": "function"
    },
    {
      "constant": false,
      "inputs": [
        {
          "name": "_newOwner",
          "type": "address"
        }
      ],
      "name": "changeOwner",
      "outputs": [],
      "payable": false,
      "stateMutability": "nonpayable",
      "type": "function"
    },
    {
      "constant": true,
      "inputs": [],
      "name": "costFee",
      "outputs": [
        {
          "name": "",
          "type": "uint256"
        }
      ],
      "payable": false,
      "stateMutability": "view",
      "type": "function"
    },
    {
      "constant": true,
      "inputs": [
        {
          "name": "_addr",
          "type": "address"
        }
      ],
      "name": "isApplied",
      "outputs": [
        {
          "name": "",
          "type": "bool"
        }
      ],
      "payable": false,
      "stateMutability": "view",
      "type": "function"
    },
    {
      "constant": true,
      "inputs": [
        {
          "name": "_addr",
          "type": "address"
        }
      ],
      "name": "isReturned",
      "outputs": [
        {
          "name": "",
          "type": "bool"
        }
      ],
      "payable": false,
      "stateMutability": "view",
      "type": "function"
    },
    {
      "constant": true,
      "inputs": [],
      "name": "ownerBalance",
      "outputs": [
        {
          "name": "",
          "type": "uint256"
        }
      ],
      "payable": false,
      "stateMutability": "view",
      "type": "function"
    },
    {
      "constant": true,
      "inputs": [],
      "name": "isFreeze",
      "outputs": [
        {
          "name": "",
          "type": "bool"
        }
      ],
      "payable": false,
      "stateMutability": "view",
      "type": "function"
    },
    {
      "constant": true,
      "inputs": [],
      "name": "isApplyEnd",
      "outputs": [
        {
          "name": "",
          "type": "bool"
        }
      ],
      "payable": false,
      "stateMutability": "view",
      "type": "function"
    },
    {
      "constant": true,
      "inputs": [],
      "name": "applyFee",
      "outputs": [
        {
          "name": "",
          "type": "uint256"
        }
      ],
      "payable": false,
      "stateMutability": "view",
      "type": "function"
    },
    {
      "inputs": [
        {
          "name": "_name",
          "type": "string"
        },
        {
          "name": "_totalOfAttendee",
          "type": "uint256"
        },
        {
          "name": "_applyFee",
          "type": "uint256"
        },
        {
          "name": "_returnBonus",
          "type": "uint256"
        }
      ],
      "payable": false,
      "stateMutability": "nonpayable",
      "type": "constructor"
    },
    {
      "anonymous": false,
      "inputs": [
        {
          "indexed": false,
          "name": "_addr",
          "type": "address"
        },
        {
          "indexed": false,
          "name": "_encryption",
          "type": "string"
        }
      ],
      "name": "ApplyEvent",
      "type": "event"
    },
    {
      "anonymous": false,
      "inputs": [
        {
          "indexed": false,
          "name": "_addrs",
          "type": "address[]"
        }
      ],
      "name": "AttendEvent",
      "type": "event"
    },
    {
      "anonymous": false,
      "inputs": [],
      "name": "ApplyEndEvent",
      "type": "event"
    },
    {
      "anonymous": false,
      "inputs": [],
      "name": "CancelEvent",
      "type": "event"
    },
    {
      "anonymous": false,
      "inputs": [],
      "name": "FinishEvent",
      "type": "event"
    },
    {
      "anonymous": false,
      "inputs": [
        {
          "indexed": false,
          "name": "_addr",
          "type": "address"
        },
        {
          "indexed": false,
          "name": "_returnBonus",
          "type": "uint256"
        }
      ],
      "name": "ReturnBonusEvent",
      "type": "event"
    },
    {
      "anonymous": false,
      "inputs": [
        {
          "indexed": false,
          "name": "_addr",
          "type": "address"
        },
        {
          "indexed": false,
          "name": "_totalOfAttendee",
          "type": "uint256"
        }
      ],
      "name": "UpdateTotalOfAttendeeEvent",
      "type": "event"
    },
    {
      "anonymous": false,
      "inputs": [],
      "name": "FreezeContractEvent",
      "type": "event"
    },
    {
      "anonymous": false,
      "inputs": [],
      "name": "UnFreezeContractEvent",
      "type": "event"
    },
    {
      "anonymous": false,
      "inputs": [
        {
          "indexed": true,
          "name": "grantee",
          "type": "address"
        }
      ],
      "name": "AdminGranted",
      "type": "event"
    },
    {
      "anonymous": false,
      "inputs": [
        {
          "indexed": true,
          "name": "grantee",
          "type": "address"
        }
      ],
      "name": "AdminRevoked",
      "type": "event"
    },
    {
      "constant": false,
      "inputs": [
        {
          "name": "_address",
          "type": "address"
        }
      ],
      "name": "apply",
      "outputs": [],
      "payable": true,
      "stateMutability": "payable",
      "type": "function"
    },
    {
      "constant": false,
      "inputs": [
        {
          "name": "_address",
          "type": "address"
        }
      ],
      "name": "getReturnBonus",
      "outputs": [],
      "payable": false,
      "stateMutability": "nonpayable",
      "type": "function"
    },
    {
      "constant": false,
      "inputs": [
        {
          "name": "_addressList",
          "type": "address[]"
        }
      ],
      "name": "updateAttendedList",
      "outputs": [],
      "payable": false,
      "stateMutability": "nonpayable",
      "type": "function"
    },
    {
      "constant": false,
      "inputs": [],
      "name": "applyEnd",
      "outputs": [],
      "payable": false,
      "stateMutability": "nonpayable",
      "type": "function"
    },
    {
      "constant": false,
      "inputs": [],
      "name": "cancel",
      "outputs": [],
      "payable": false,
      "stateMutability": "nonpayable",
      "type": "function"
    },
    {
      "constant": false,
      "inputs": [
        {
          "name": "_address",
          "type": "address"
        }
      ],
      "name": "finish",
      "outputs": [],
      "payable": false,
      "stateMutability": "nonpayable",
      "type": "function"
    },
    {
      "constant": false,
      "inputs": [
        {
          "name": "_totalOfAttendee",
          "type": "uint256"
        }
      ],
      "name": "updateTotalOfAttendee",
      "outputs": [],
      "payable": false,
      "stateMutability": "nonpayable",
      "type": "function"
    },
    {
      "constant": false,
      "inputs": [],
      "name": "freezeContract",
      "outputs": [],
      "payable": false,
      "stateMutability": "nonpayable",
      "type": "function"
    },
    {
      "constant": false,
      "inputs": [],
      "name": "unFreezeContract",
      "outputs": [],
      "payable": false,
      "stateMutability": "nonpayable",
      "type": "function"
    }
  ],
  "bytecode": "0x60806040523480156200001157600080fd5b5060405162001e1938038062001e19833981018060405281019080805182019291906020018051906020019092919080519060200190929190805190602001909291905050508233600060046101000a81548173ffffffffffffffffffffffffffffffffffffffff021916908373ffffffffffffffffffffffffffffffffffffffff16021790555060018060003373ffffffffffffffffffffffffffffffffffffffff1673ffffffffffffffffffffffffffffffffffffffff16815260200190815260200160002060006101000a81548160ff0219169083151502179055506000811115156200010057600080fd5b80600381905550508082101515156200011857600080fd5b8360069080519060200190620001309291906200018d565b50816007819055508060088190555062000163600754600854620001736401000000000262001863176401000000009004565b600981905550505050506200023c565b60008282111515156200018257fe5b818303905092915050565b828054600181600116156101000203166002900490600052602060002090601f016020900481019282601f10620001d057805160ff191683800117855562000201565b8280016001018555821562000201579182015b8281111562000200578251825591602001919060010190620001e3565b5b50905062000210919062000214565b5090565b6200023991905b80821115620002355760008160009055506001016200021b565b5090565b90565b611bcd806200024c6000396000f30060806040526004361061018b576000357c0100000000000000000000000000000000000000000000000000000000900463ffffffff16806302b274201461019057806306fdde03146101a75780630ed5a9331461023757806316ae75d6146102665780631dd8c3d01461029157806324d7806c146102d4578063305ec69e1461032f57806335735226146103725780635f1d825f1461039d578063686bdf19146103b457806370284d191461044d57806373404f4d1461049057806374a8f103146104bb5780638da5cb5b146104fe578063938317821461055557806399d23ef414610580578063a07f3a56146105ab578063a4fd6f5614610606578063a584a9b514610635578063a6f9dae11461064c578063ab92769b1461068f578063aef61ae4146106ba578063b0c15713146106f5578063ba9941cb14610750578063bedcf003146107ab578063c154d6ca146107d6578063c1a7b27f14610805578063c6b32f3414610834578063cf2401251461086a578063dcc9def514610897578063ea8a1af0146108c2575b600080fd5b34801561019c57600080fd5b506101a56108d9565b005b3480156101b357600080fd5b506101bc610976565b6040518080602001828103825283818151815260200191508051906020019080838360005b838110156101fc5780820151818401526020810190506101e1565b50505050905090810190601f1680156102295780820380516001836020036101000a031916815260200191505b509250505060405180910390f35b34801561024357600080fd5b5061024c610a14565b604051808215151515815260200191505060405180910390f35b34801561027257600080fd5b5061027b610a27565b6040518082815260200191505060405180910390f35b34801561029d57600080fd5b506102d2600480360381019080803573ffffffffffffffffffffffffffffffffffffffff169060200190929190505050610a2d565b005b3480156102e057600080fd5b50610315600480360381019080803573ffffffffffffffffffffffffffffffffffffffff169060200190929190505050610b5a565b604051808215151515815260200191505060405180910390f35b34801561033b57600080fd5b50610370600480360381019080803573ffffffffffffffffffffffffffffffffffffffff169060200190929190505050610bb7565b005b34801561037e57600080fd5b50610387610d48565b6040518082815260200191505060405180910390f35b3480156103a957600080fd5b506103b2610d4e565b005b3480156103c057600080fd5b506103f5600480360381019080803573ffffffffffffffffffffffffffffffffffffffff169060200190929190505050610dfb565b604051808473ffffffffffffffffffffffffffffffffffffffff1673ffffffffffffffffffffffffffffffffffffffff1681526020018315151515815260200182151515158152602001935050505060405180910390f35b34801561045957600080fd5b5061048e600480360381019080803573ffffffffffffffffffffffffffffffffffffffff169060200190929190505050610e5f565b005b34801561049c57600080fd5b506104a5610fb1565b6040518082815260200191505060405180910390f35b3480156104c757600080fd5b506104fc600480360381019080803573ffffffffffffffffffffffffffffffffffffffff169060200190929190505050610fb7565b005b34801561050a57600080fd5b50610513611109565b604051808273ffffffffffffffffffffffffffffffffffffffff1673ffffffffffffffffffffffffffffffffffffffff16815260200191505060405180910390f35b34801561056157600080fd5b5061056a61112f565b6040518082815260200191505060405180910390f35b34801561058c57600080fd5b50610595611135565b6040518082815260200191505060405180910390f35b3480156105b757600080fd5b506105ec600480360381019080803573ffffffffffffffffffffffffffffffffffffffff16906020019092919050505061113b565b604051808215151515815260200191505060405180910390f35b34801561061257600080fd5b5061061b6111a5565b604051808215151515815260200191505060405180910390f35b34801561064157600080fd5b5061064a6111b8565b005b34801561065857600080fd5b5061068d600480360381019080803573ffffffffffffffffffffffffffffffffffffffff169060200190929190505050611266565b005b34801561069b57600080fd5b506106a4611306565b6040518082815260200191505060405180910390f35b3480156106c657600080fd5b506106f360048036038101908080359060200190820180359060200191909192939192939050505061130c565b005b34801561070157600080fd5b50610736600480360381019080803573ffffffffffffffffffffffffffffffffffffffff1690602001909291905050506113e8565b604051808215151515815260200191505060405180910390f35b34801561075c57600080fd5b50610791600480360381019080803573ffffffffffffffffffffffffffffffffffffffff169060200190929190505050611483565b604051808215151515815260200191505060405180910390f35b3480156107b757600080fd5b506107c06114ed565b6040518082815260200191505060405180910390f35b3480156107e257600080fd5b506107eb6114f3565b604051808215151515815260200191505060405180910390f35b34801561081157600080fd5b5061081a611506565b604051808215151515815260200191505060405180910390f35b610868600480360381019080803573ffffffffffffffffffffffffffffffffffffffff169060200190929190505050611518565b005b34801561087657600080fd5b5061089560048036038101908080359060200190929190505050611663565b005b3480156108a357600080fd5b506108ac611726565b6040518082815260200191505060405180910390f35b3480156108ce57600080fd5b506108d761172c565b005b600060019054906101000a900460ff161515156108f557600080fd5b600060039054906101000a900460ff1615151561091157600080fd5b6000809054906101000a900460ff1615151561092c57600080fd5b61093533610b5a565b151561094057600080fd5b6109486117b7565b7f3babf9dbddf4fc6d4991ef844c2e0eb2958bf5ee115c90a4b58c32699f4470a360405160405180910390a1565b60068054600181600116156101000203166002900480601f016020809104026020016040519081016040528092919081815260200182805460018160011615610100020316600290048015610a0c5780601f106109e157610100808354040283529160200191610a0c565b820191906000526020600020905b8154815290600101906020018083116109ef57829003601f168201915b505050505081565b600060029054906101000a900460ff1681565b60055481565b600060019054906101000a900460ff161515610a4857600080fd5b600073ffffffffffffffffffffffffffffffffffffffff168173ffffffffffffffffffffffffffffffffffffffff1614151515610a8457600080fd5b610a8d816113e8565b1515610a9857600080fd5b610aa1816117d3565b8073ffffffffffffffffffffffffffffffffffffffff166108fc6008549081150290604051600060405180830381858888f19350505050158015610ae9573d6000803e3d6000fd5b507fb09b5aa03066a635a2d9699faba8d30243e0904eca6b1c1ec0122d1ff05867d281600854604051808373ffffffffffffffffffffffffffffffffffffffff1673ffffffffffffffffffffffffffffffffffffffff1681526020018281526020019250505060405180910390a150565b600060011515600160008473ffffffffffffffffffffffffffffffffffffffff1673ffffffffffffffffffffffffffffffffffffffff16815260200190815260200160002060009054906101000a900460ff161515149050919050565b600080600060019054906101000a900460ff16151515610bd657600080fd5b600060039054906101000a900460ff16151515610bf257600080fd5b610bfb33610b5a565b1515610c0657600080fd5b6000600554111515610c1757600080fd5b610c1f611846565b3073ffffffffffffffffffffffffffffffffffffffff16319150610c4582600a54611863565b600b81905550610c59600b5460055461187c565b600881905550600554600b54811515610c6e57fe5b069050600081141515610cba57610c87600a54826118bd565b600a81905550610c9b6005546008546118e7565b600b81905550610caf600a54600b54611863565b82141515610cb957fe5b5b6000600a541115610d17578273ffffffffffffffffffffffffffffffffffffffff166108fc600a549081150290604051600060405180830381858888f19350505050158015610d0d573d6000803e3d6000fd5b506000600a819055505b7fd59893998f7e091375dc091922d993c33332ec1bb7ea628db78eefd234b55c5460405160405180910390a1505050565b60085481565b600060039054906101000a900460ff161515610d6957600080fd5b600060049054906101000a900473ffffffffffffffffffffffffffffffffffffffff1673ffffffffffffffffffffffffffffffffffffffff163373ffffffffffffffffffffffffffffffffffffffff16141515610dc557600080fd5b610dcd61191a565b7f809d579f10e735e1f5db8168d99bd987a986eccb6c57a574e10b3a66ddd1092b60405160405180910390a1565b60026020528060005260406000206000915090508060000160009054906101000a900473ffffffffffffffffffffffffffffffffffffffff16908060000160149054906101000a900460ff16908060000160159054906101000a900460ff16905083565b600060049054906101000a900473ffffffffffffffffffffffffffffffffffffffff1673ffffffffffffffffffffffffffffffffffffffff163373ffffffffffffffffffffffffffffffffffffffff16141515610ebb57600080fd5b600160008273ffffffffffffffffffffffffffffffffffffffff1673ffffffffffffffffffffffffffffffffffffffff16815260200190815260200160002060009054906101000a900460ff16151515610f1457600080fd5b60018060008373ffffffffffffffffffffffffffffffffffffffff1673ffffffffffffffffffffffffffffffffffffffff16815260200190815260200160002060006101000a81548160ff0219169083151502179055508073ffffffffffffffffffffffffffffffffffffffff167f1c4e23de8d72c94b22992bd4d7b6786b215ba876af214ff63e6a0ca38fc97af460405160405180910390a250565b600b5481565b600060049054906101000a900473ffffffffffffffffffffffffffffffffffffffff1673ffffffffffffffffffffffffffffffffffffffff163373ffffffffffffffffffffffffffffffffffffffff1614151561101357600080fd5b600160008273ffffffffffffffffffffffffffffffffffffffff1673ffffffffffffffffffffffffffffffffffffffff16815260200190815260200160002060009054906101000a900460ff16151561106b57600080fd5b6000600160008373ffffffffffffffffffffffffffffffffffffffff1673ffffffffffffffffffffffffffffffffffffffff16815260200190815260200160002060006101000a81548160ff0219169083151502179055508073ffffffffffffffffffffffffffffffffffffffff167f631ff1c4e1a02c54b480a34b810e03bcee61fe38efcb243930a7f820914923e260405160405180910390a250565b600060049054906101000a900473ffffffffffffffffffffffffffffffffffffffff1681565b60035481565b60045481565b6000611146826113e8565b801561119e5750600260008373ffffffffffffffffffffffffffffffffffffffff1673ffffffffffffffffffffffffffffffffffffffff16815260200190815260200160002060000160149054906101000a900460ff165b9050919050565b600060019054906101000a900460ff1681565b600060039054906101000a900460ff161515156111d457600080fd5b600060049054906101000a900473ffffffffffffffffffffffffffffffffffffffff1673ffffffffffffffffffffffffffffffffffffffff163373ffffffffffffffffffffffffffffffffffffffff1614151561123057600080fd5b611238611936565b7f21a051fda9b355e80cbce659c6bfbf020a6d58aa8beec6028d1f85ce557f5ac960405160405180910390a1565b600060049054906101000a900473ffffffffffffffffffffffffffffffffffffffff1673ffffffffffffffffffffffffffffffffffffffff163373ffffffffffffffffffffffffffffffffffffffff161415156112c257600080fd5b80600060046101000a81548173ffffffffffffffffffffffffffffffffffffffff021916908373ffffffffffffffffffffffffffffffffffffffff16021790555050565b60095481565b600060019054906101000a900460ff1615151561132857600080fd5b600060039054906101000a900460ff1615151561134457600080fd5b61134d33610b5a565b151561135857600080fd5b611390828280806020026020016040519081016040528093929190818152602001838360200280828437820191505050505050611953565b7f3aefa871afeff38e5a65818b2f0abb41e537d909f424cc1e70db574420e6630c8282604051808060200182810382528484828181526020019250602002808284378201915050935050505060405180910390a15050565b60008073ffffffffffffffffffffffffffffffffffffffff16600260008473ffffffffffffffffffffffffffffffffffffffff1673ffffffffffffffffffffffffffffffffffffffff16815260200190815260200160002060000160009054906101000a900473ffffffffffffffffffffffffffffffffffffffff1673ffffffffffffffffffffffffffffffffffffffff1614159050919050565b600061148e826113e8565b80156114e65750600260008373ffffffffffffffffffffffffffffffffffffffff1673ffffffffffffffffffffffffffffffffffffffff16815260200190815260200160002060000160159054906101000a900460ff165b9050919050565b600a5481565b600060039054906101000a900460ff1681565b6000809054906101000a900460ff1681565b600060019054906101000a900460ff1615151561153457600080fd5b600060039054906101000a900460ff1615151561155057600080fd5b6000809054906101000a900460ff1615151561156b57600080fd5b600073ffffffffffffffffffffffffffffffffffffffff168173ffffffffffffffffffffffffffffffffffffffff16141515156115a757600080fd5b6115b0816113e8565b1515156115bc57600080fd5b600754341415156115cc57600080fd5b6115d581611a26565b6115e3600a546009546118bd565b600a819055507feb1e88669360753d90a900fe1f3772f903c497864b17aacd41b0a70a6f23a68d81604051808273ffffffffffffffffffffffffffffffffffffffff1673ffffffffffffffffffffffffffffffffffffffff168152602001806020018281038252600081526020016020019250505060405180910390a150565b600060019054906101000a900460ff1615151561167f57600080fd5b600060039054906101000a900460ff1615151561169b57600080fd5b6116a433610b5a565b15156116af57600080fd5b6116b881611b4e565b7f2606a1c52ae7c6e404beabd5df1b6a4120386324ec6c6a0d84c71b779756b5243382604051808373ffffffffffffffffffffffffffffffffffffffff1673ffffffffffffffffffffffffffffffffffffffff1681526020018281526020019250505060405180910390a150565b60075481565b600060019054906101000a900460ff1615151561174857600080fd5b600060039054906101000a900460ff1615151561176457600080fd5b61176d33610b5a565b151561177857600080fd5b611780611b69565b6007546008819055507faac5ae2dfd439bb6c2f88b2d8af5b285cfee7584ad0d13ae7c00c1226c7c4c7b60405160405180910390a1565b60016000806101000a81548160ff021916908315150217905550565b6117dc81611483565b1515156117e857600080fd5b6001600260008373ffffffffffffffffffffffffffffffffffffffff1673ffffffffffffffffffffffffffffffffffffffff16815260200190815260200160002060000160156101000a81548160ff02191690831515021790555050565b6001600060016101000a81548160ff021916908315150217905550565b600082821115151561187157fe5b818303905092915050565b60008060008311151561188b57fe5b828481151561189657fe5b04905082848115156118a457fe5b0681840201841415156118b357fe5b8091505092915050565b60008082840190508381101580156118d55750828110155b15156118dd57fe5b8091505092915050565b60008082840290506000841480611908575082848281151561190557fe5b04145b151561191057fe5b8091505092915050565b60008060036101000a81548160ff021916908315150217905550565b6001600060036101000a81548160ff021916908315150217905550565b600080600091505b8251821015611a2157828281518110151561197257fe5b906020019060200201519050611987816113e8565b151561199257600080fd5b61199b8161113b565b1515156119a757600080fd5b6001600260008373ffffffffffffffffffffffffffffffffffffffff1673ffffffffffffffffffffffffffffffffffffffff16815260200190815260200160002060000160146101000a81548160ff021916908315150217905550600560008154809291906001019190505550818060010192505061195b565b505050565b600354600454101515611a3857600080fd5b6004600081548092919060010191905055506060604051908101604052808273ffffffffffffffffffffffffffffffffffffffff16815260200160001515815260200160001515815250600260008373ffffffffffffffffffffffffffffffffffffffff1673ffffffffffffffffffffffffffffffffffffffff16815260200190815260200160002060008201518160000160006101000a81548173ffffffffffffffffffffffffffffffffffffffff021916908373ffffffffffffffffffffffffffffffffffffffff16021790555060208201518160000160146101000a81548160ff02191690831515021790555060408201518160000160156101000a81548160ff02191690831515021790555090505050565b6004548110151515611b5f57600080fd5b8060038190555050565b6001600060016101000a81548160ff0219169083151502179055506001600060026101000a81548160ff0219169083151502179055505600a165627a7a7230582057268e43b21baa9d52bde76325e9060f9aa61050915311e5de948bdde19ea05a0029",
  "source": "pragma solidity ^0.4.23;\n\nimport \"./role/Attendee.sol\";\nimport \"./role/Admin.sol\";\nimport \"./status/Status.sol\";\nimport \"./util/Math.sol\";\n\n/**\n * @title Parity\n * join party by smart party\n */\n\ncontract Party is Status, Admin, Attendee {\n\n    string public name;//\n    uint256 public applyFee; //\n    uint256 public returnBonus; //\n\n    uint256 public costFee; //,\n\n    uint256 public ownerBalance; //()\n    uint256 public liabBalance; //()\n\n\n    /* constructor function */\n    constructor (\n        string _name,\n        uint256 _totalOfAttendee,\n        uint256 _applyFee,\n        uint256 _returnBonus\n    ) Attendee(_totalOfAttendee) public {\n        require(_applyFee >= _returnBonus);\n\n        name = _name;\n        applyFee = _applyFee;\n        returnBonus = _returnBonus;\n        costFee = Math.safeSub(applyFee, returnBonus);\n    }\n\n\n    event ApplyEvent(address _addr, string _encryption);\n    event AttendEvent(address[] _addrs);\n\n    event ApplyEndEvent();\n    event CancelEvent();\n    event FinishEvent();\n\n    event ReturnBonusEvent(address _addr, uint256 _returnBonus);\n    event UpdateTotalOfAttendeeEvent(address _addr, uint256 _totalOfAttendee);\n\n    event FreezeContractEvent();\n    event UnFreezeContractEvent();\n\n    function apply(address _address) external payable onlyCanApply{//\n        require(_address != address(0));\n        require(!isApplied(_address));\n        require(msg.value == applyFee);\n\n        updateAttendeeApplied(_address);\n\n        ownerBalance = Math.safeAdd(ownerBalance, costFee);\n\n        emit ApplyEvent(_address, '');\n    }\n\n    function getReturnBonus(address _address) external onlyEnded{//()pullpush\n        require(_address != address(0));\n        require(isApplied(_address));\n\n\n        updateAttendeeIsReturned(_address);\n\n        _address.transfer(returnBonus);\n\n        emit ReturnBonusEvent(_address, returnBonus);\n    }\n\n    function updateAttendedList(address[] _addressList) external onlyActive onlyAdmin {//\n        updateAttendeeAttendedList(_addressList);\n\n        emit AttendEvent(_addressList);\n    }\n\n    function applyEnd() external onlyCanApply onlyAdmin {//\n        updateStatusApplyEnd();//\n\n        emit ApplyEndEvent();\n    }\n\n    function cancel() external onlyActive onlyAdmin {//\n        updateStatusCancel();//\n\n        returnBonus = applyFee;//\n\n        emit CancelEvent();\n    }\n\n    function finish(address _address) external onlyActive onlyAdmin {//\n        require(numOfAttended > 0);//\n\n        updateStatusFinish();//\n\n        uint256 totalBalance = address(this).balance;//ETH\n        liabBalance = Math.safeSub(totalBalance, ownerBalance);//\n\n        returnBonus = Math.safeDiv(liabBalance, numOfAttended);//  wei\n\n        uint256 diffBalance = liabBalance % numOfAttended;//\n        if(diffBalance != 0) {\n            ownerBalance = Math.safeAdd(ownerBalance, diffBalance);//\n            liabBalance = Math.safeMul(numOfAttended, returnBonus);//\n            assert(totalBalance == Math.safeSub(ownerBalance, liabBalance));//=+\n        }\n\n        if(ownerBalance > 0) {\n            _address.transfer(ownerBalance);//\n            ownerBalance = 0;//transfer2300gasupdateStatusFinish\n        }\n\n        emit FinishEvent();\n    }\n\n    function updateTotalOfAttendee(uint256 _totalOfAttendee) external onlyActive onlyAdmin {//\n        updateAttendeeTotalOfAttendee(_totalOfAttendee);\n\n        emit UpdateTotalOfAttendeeEvent(msg.sender, _totalOfAttendee);\n    }\n\n    //bug\n    function freezeContract() external onlyUnFreeze onlyOwner{//\n        updateStatusFreeze();\n\n        emit FreezeContractEvent();\n    }\n\n    function unFreezeContract() external onlyFreeze onlyOwner{//\n        updateStatusUnFreeze();\n\n        emit UnFreezeContractEvent();\n    }\n}\n",
  "sourcePath": "/Users/guohuaquan/program/contractparty/solidity/contracts/src/Party.sol",
  "compiler": {
    "name": "solc",
    "version": "0.4.24+commit.e67f0147.Emscripten.clang"
  },
  "schemaVersion": "2.0.0",
  "updatedAt": "2018-06-15T03:06:23.735Z"
}