{
  "contractName": "PartyProxy",
  "abi": [
    {
      "constant": true,
      "inputs": [],
      "name": "methodCode",
      "outputs": [
        {
          "name": "",
          "type": "bytes4"
        }
      ],
      "payable": false,
      "stateMutability": "view",
      "type": "function"
    },
    {
      "constant": true,
      "inputs": [],
      "name": "contractAddress",
      "outputs": [
        {
          "name": "",
          "type": "address"
        }
      ],
      "payable": false,
      "stateMutability": "view",
      "type": "function"
    },
    {
      "inputs": [
        {
          "name": "_contractAddress",
          "type": "address"
        },
        {
          "name": "_methodCode",
          "type": "bytes4"
        }
      ],
      "payable": false,
      "stateMutability": "nonpayable",
      "type": "constructor"
    },
    {
      "payable": true,
      "stateMutability": "payable",
      "type": "fallback"
    }
  ],
  "bytecode": "0x608060405234801561001057600080fd5b506040516040806103988339810180604052810190808051906020019092919080519060200190929190505050600073ffffffffffffffffffffffffffffffffffffffff168273ffffffffffffffffffffffffffffffffffffffff161415151561007957600080fd5b816000806101000a81548173ffffffffffffffffffffffffffffffffffffffff021916908373ffffffffffffffffffffffffffffffffffffffff16021790555080600060146101000a81548163ffffffff02191690837c0100000000000000000000000000000000000000000000000000000000900402179055505050610293806101056000396000f30060806040526004361061004c576000357c0100000000000000000000000000000000000000000000000000000000900463ffffffff168063c95f3e1e14610153578063f6b4dfb4146101bc575b6000809054906101000a900473ffffffffffffffffffffffffffffffffffffffff1673ffffffffffffffffffffffffffffffffffffffff1634600060149054906101000a90047c0100000000000000000000000000000000000000000000000000000000027c0100000000000000000000000000000000000000000000000000000000900490336040518363ffffffff167c0100000000000000000000000000000000000000000000000000000000028152600401808273ffffffffffffffffffffffffffffffffffffffff1673ffffffffffffffffffffffffffffffffffffffff16815260200191505060006040518083038185885af19350505050151561015157fe5b005b34801561015f57600080fd5b50610168610213565b60405180827bffffffffffffffffffffffffffffffffffffffffffffffffffffffff19167bffffffffffffffffffffffffffffffffffffffffffffffffffffffff1916815260200191505060405180910390f35b3480156101c857600080fd5b506101d1610242565b604051808273ffffffffffffffffffffffffffffffffffffffff1673ffffffffffffffffffffffffffffffffffffffff16815260200191505060405180910390f35b600060149054906101000a90047c01000000000000000000000000000000000000000000000000000000000281565b6000809054906101000a900473ffffffffffffffffffffffffffffffffffffffff16815600a165627a7a723058200396ee14a4bb6f4a72981f2be2fced17fc92d566b95eb91c254493f41a2ded710029",
  "source": "pragma solidity ^0.4.23;\n\nimport \"./role/Attendee.sol\";\nimport \"./role/Admin.sol\";\nimport \"./status/Status.sol\";\nimport \"./util/Math.sol\";\n\n\n/**\n * @title PartyProxy\n * the proxy of party\n */\n\ncontract PartyProxy {\n\n    address public contractAddress;//合约地址\n    bytes4  public methodCode;//合约方法\n\n    /* constructor function */\n    constructor (\n        address _contractAddress,\n        bytes4 _methodCode\n    ) public {\n        require(_contractAddress != address(0));\n\n        contractAddress = _contractAddress;\n        methodCode = _methodCode;\n    }\n\n    function () payable public {//降低参会者报名门槛，只用发起转账就可以报名\n        assert(contractAddress.call.value(msg.value)(methodCode, msg.sender));// 因为调用的合约地址是我们自己指定的，不会是恶意地址，所以不需要指定gas限制\n    }\n\n}\n",
  "sourcePath": "/Users/guohuaquan/program/contractparty/solidity/contracts/src/PartyProxy.sol",
  "compiler": {
    "name": "solc",
    "version": "0.4.24+commit.e67f0147.Emscripten.clang"
  },
  "schemaVersion": "2.0.0",
  "updatedAt": "2018-06-15T03:06:23.968Z"
}