{
  "contractName": "Status",
  "abi": [
    {
      "constant": true,
      "inputs": [],
      "name": "isCanceled",
      "outputs": [
        {
          "name": "",
          "type": "bool"
        }
      ],
      "payable": false,
      "stateMutability": "view",
      "type": "function"
    },
    {
      "constant": true,
      "inputs": [],
      "name": "isEnded",
      "outputs": [
        {
          "name": "",
          "type": "bool"
        }
      ],
      "payable": false,
      "stateMutability": "view",
      "type": "function"
    },
    {
      "constant": true,
      "inputs": [],
      "name": "isFreeze",
      "outputs": [
        {
          "name": "",
          "type": "bool"
        }
      ],
      "payable": false,
      "stateMutability": "view",
      "type": "function"
    },
    {
      "constant": true,
      "inputs": [],
      "name": "isApplyEnd",
      "outputs": [
        {
          "name": "",
          "type": "bool"
        }
      ],
      "payable": false,
      "stateMutability": "view",
      "type": "function"
    }
  ],
  "bytecode": "0x608060405234801561001057600080fd5b5061019a806100206000396000f300608060405260043610610062576000357c0100000000000000000000000000000000000000000000000000000000900463ffffffff1680630ed5a93314610067578063a4fd6f5614610096578063c154d6ca146100c5578063c1a7b27f146100f4575b600080fd5b34801561007357600080fd5b5061007c610123565b604051808215151515815260200191505060405180910390f35b3480156100a257600080fd5b506100ab610136565b604051808215151515815260200191505060405180910390f35b3480156100d157600080fd5b506100da610149565b604051808215151515815260200191505060405180910390f35b34801561010057600080fd5b5061010961015c565b604051808215151515815260200191505060405180910390f35b600060029054906101000a900460ff1681565b600060019054906101000a900460ff1681565b600060039054906101000a900460ff1681565b6000809054906101000a900460ff16815600a165627a7a723058207f9b58fafbe00faea35382361c6c44d208519353e823a3bc071c1fae7bbdbea30029",
  "source": "pragma solidity ^0.4.23;\n\n/**\n * @title Status\n * the status of stop party\n */\ncontract Status {\n\n    bool public isApplyEnd;//默认为false,true说明报名已截止,否则还可以继续报名\n\n    bool public isEnded;//默认为false,true说明可以申请拿回押金，否则还不能申请拿回押金\n    bool public isCanceled;//默认为false,true说明是取消结束会议的，否则是会议正常结束的\n\n    bool public isFreeze;//默认false，true说明是合约状态冻结，否则是合约状态冻结\n\n    /* Modifiers */\n    modifier onlyCanApply {//只能在指定时间内才允许报名的权限控制\n        require(!isEnded);\n        require(!isFreeze);\n        require(!isApplyEnd);//报名截止弃用可有矿工操控的now，改用由主办方触发的方案\n        _;\n    }\n\n    modifier onlyActive {//只能是该会议还未结束的权限控制\n        require(!isEnded);\n        require(!isFreeze);\n        _;\n    }\n\n    modifier onlyEnded {//只能是该会议已经结束的权限控制\n        require(isEnded);\n        _;\n    }\n\n    modifier onlyFreeze {//只能是该会议已被冻结的权限控制\n        require(isFreeze);\n        _;\n    }\n\n    modifier onlyUnFreeze {//只能是该会议未被冻结的权限控制\n        require(!isFreeze);\n        _;\n    }\n\n\n    function updateStatusApplyEnd() internal {//会议报名截止\n        isApplyEnd = true;\n    }\n\n    function updateStatusCancel() internal {//取消会议\n        isEnded = true;\n        isCanceled = true;\n    }\n\n    function updateStatusFinish() internal {//结束会议\n        isEnded = true;\n    }\n\n    function updateStatusFreeze() internal {//冻结合约\n        isFreeze = true;\n    }\n\n    function updateStatusUnFreeze() internal {//解冻合约\n        isFreeze = false;\n    }\n}\n",
  "sourcePath": "/Users/guohuaquan/program/contractparty/solidity/contracts/src/status/Status.sol",
  "compiler": {
    "name": "solc",
    "version": "0.4.24+commit.e67f0147.Emscripten.clang"
  },
  "schemaVersion": "2.0.0",
  "updatedAt": "2018-06-15T03:06:23.265Z"
}