{
  "contractName": "SparkCup",
  "abi": [
    {
      "constant": true,
      "inputs": [
        {
          "name": "",
          "type": "uint256"
        }
      ],
      "name": "teamToApproved",
      "outputs": [
        {
          "name": "",
          "type": "address"
        }
      ],
      "payable": false,
      "stateMutability": "view",
      "type": "function"
    },
    {
      "constant": true,
      "inputs": [
        {
          "name": "",
          "type": "uint256"
        }
      ],
      "name": "matches",
      "outputs": [
        {
          "name": "matchId",
          "type": "uint256"
        },
        {
          "name": "startTime",
          "type": "uint256"
        },
        {
          "name": "teamId1",
          "type": "uint256"
        },
        {
          "name": "teamId2",
          "type": "uint256"
        },
        {
          "name": "result",
          "type": "uint256"
        },
        {
          "name": "investPool",
          "type": "uint256"
        },
        {
          "name": "bettersCount",
          "type": "uint256"
        }
      ],
      "payable": false,
      "stateMutability": "view",
      "type": "function"
    },
    {
      "constant": true,
      "inputs": [],
      "name": "contractModifier",
      "outputs": [
        {
          "name": "",
          "type": "address"
        }
      ],
      "payable": false,
      "stateMutability": "view",
      "type": "function"
    },
    {
      "constant": true,
      "inputs": [
        {
          "name": "",
          "type": "address"
        }
      ],
      "name": "matchPrizeBank",
      "outputs": [
        {
          "name": "",
          "type": "uint256"
        }
      ],
      "payable": false,
      "stateMutability": "view",
      "type": "function"
    },
    {
      "constant": true,
      "inputs": [],
      "name": "developer",
      "outputs": [
        {
          "name": "",
          "type": "address"
        }
      ],
      "payable": false,
      "stateMutability": "view",
      "type": "function"
    },
    {
      "inputs": [],
      "payable": false,
      "stateMutability": "nonpayable",
      "type": "constructor"
    },
    {
      "payable": true,
      "stateMutability": "payable",
      "type": "fallback"
    },
    {
      "anonymous": false,
      "inputs": [
        {
          "indexed": true,
          "name": "from",
          "type": "address"
        },
        {
          "indexed": true,
          "name": "to",
          "type": "address"
        },
        {
          "indexed": false,
          "name": "tokenId",
          "type": "uint256"
        }
      ],
      "name": "Transfer",
      "type": "event"
    },
    {
      "anonymous": false,
      "inputs": [
        {
          "indexed": true,
          "name": "owner",
          "type": "address"
        },
        {
          "indexed": true,
          "name": "approved",
          "type": "address"
        },
        {
          "indexed": false,
          "name": "tokenId",
          "type": "uint256"
        }
      ],
      "name": "Approval",
      "type": "event"
    },
    {
      "anonymous": false,
      "inputs": [
        {
          "indexed": true,
          "name": "team",
          "type": "uint256"
        },
        {
          "indexed": true,
          "name": "from",
          "type": "address"
        },
        {
          "indexed": false,
          "name": "oldPrice",
          "type": "uint256"
        },
        {
          "indexed": true,
          "name": "to",
          "type": "address"
        },
        {
          "indexed": false,
          "name": "newPrice",
          "type": "uint256"
        },
        {
          "indexed": false,
          "name": "tradingTime",
          "type": "uint256"
        },
        {
          "indexed": false,
          "name": "balance",
          "type": "uint256"
        }
      ],
      "name": "TeamSold",
      "type": "event"
    },
    {
      "anonymous": false,
      "inputs": [
        {
          "indexed": true,
          "name": "value1",
          "type": "uint256"
        }
      ],
      "name": "test_value",
      "type": "event"
    },
    {
      "constant": false,
      "inputs": [
        {
          "name": "matchId",
          "type": "uint256"
        },
        {
          "name": "startTime",
          "type": "uint256"
        },
        {
          "name": "teamId1",
          "type": "uint256"
        },
        {
          "name": "teamId2",
          "type": "uint256"
        }
      ],
      "name": "addMatch",
      "outputs": [
        {
          "name": "result",
          "type": "bool"
        }
      ],
      "payable": false,
      "stateMutability": "nonpayable",
      "type": "function"
    },
    {
      "constant": false,
      "inputs": [
        {
          "name": "matchId",
          "type": "uint256"
        },
        {
          "name": "bet",
          "type": "uint256"
        }
      ],
      "name": "betMatch",
      "outputs": [
        {
          "name": "result",
          "type": "bool"
        }
      ],
      "payable": true,
      "stateMutability": "payable",
      "type": "function"
    },
    {
      "constant": true,
      "inputs": [
        {
          "name": "matchId",
          "type": "uint256"
        }
      ],
      "name": "getMatch",
      "outputs": [
        {
          "name": "",
          "type": "uint256[]"
        }
      ],
      "payable": false,
      "stateMutability": "view",
      "type": "function"
    },
    {
      "constant": true,
      "inputs": [],
      "name": "getNow",
      "outputs": [
        {
          "name": "",
          "type": "uint256"
        }
      ],
      "payable": false,
      "stateMutability": "view",
      "type": "function"
    },
    {
      "constant": false,
      "inputs": [
        {
          "name": "matchId",
          "type": "uint256"
        },
        {
          "name": "result",
          "type": "uint256"
        }
      ],
      "name": "setMatchAndPrize",
      "outputs": [
        {
          "name": "",
          "type": "bool"
        }
      ],
      "payable": false,
      "stateMutability": "nonpayable",
      "type": "function"
    },
    {
      "constant": false,
      "inputs": [],
      "name": "matchWithdraw",
      "outputs": [
        {
          "name": "",
          "type": "bool"
        }
      ],
      "payable": false,
      "stateMutability": "nonpayable",
      "type": "function"
    },
    {
      "constant": true,
      "inputs": [],
      "name": "getBalance",
      "outputs": [
        {
          "name": "_balance",
          "type": "uint256"
        }
      ],
      "payable": false,
      "stateMutability": "view",
      "type": "function"
    },
    {
      "constant": true,
      "inputs": [],
      "name": "getContractBalance",
      "outputs": [
        {
          "name": "_contractBalance",
          "type": "uint256"
        }
      ],
      "payable": false,
      "stateMutability": "view",
      "type": "function"
    },
    {
      "constant": false,
      "inputs": [
        {
          "name": "tokenId",
          "type": "uint256"
        }
      ],
      "name": "buyTeam",
      "outputs": [],
      "payable": true,
      "stateMutability": "payable",
      "type": "function"
    },
    {
      "constant": true,
      "inputs": [
        {
          "name": "tokenId",
          "type": "uint256"
        }
      ],
      "name": "getTeam",
      "outputs": [
        {
          "name": "_tokenId",
          "type": "uint256"
        },
        {
          "name": "_name",
          "type": "string"
        },
        {
          "name": "_code",
          "type": "string"
        },
        {
          "name": "_price",
          "type": "uint256"
        },
        {
          "name": "_lastSoldPrice",
          "type": "uint256"
        },
        {
          "name": "_txCount",
          "type": "uint256"
        },
        {
          "name": "_rewardCount",
          "type": "uint256"
        },
        {
          "name": "_owner",
          "type": "address"
        }
      ],
      "payable": false,
      "stateMutability": "view",
      "type": "function"
    },
    {
      "constant": true,
      "inputs": [
        {
          "name": "tokenId",
          "type": "uint256"
        },
        {
          "name": "recordId",
          "type": "uint256"
        }
      ],
      "name": "getTeamTxRecords",
      "outputs": [
        {
          "name": "price",
          "type": "uint256"
        },
        {
          "name": "time",
          "type": "uint256"
        },
        {
          "name": "from",
          "type": "address"
        },
        {
          "name": "to",
          "type": "address"
        }
      ],
      "payable": false,
      "stateMutability": "view",
      "type": "function"
    },
    {
      "constant": true,
      "inputs": [],
      "name": "getPrizePool",
      "outputs": [
        {
          "name": "last16PoolTotal",
          "type": "uint256"
        },
        {
          "name": "last16Locked",
          "type": "bool"
        },
        {
          "name": "quarterPoolTotal",
          "type": "uint256"
        },
        {
          "name": "quarterLocked",
          "type": "bool"
        },
        {
          "name": "semiPoolTotal",
          "type": "uint256"
        },
        {
          "name": "semiLocked",
          "type": "bool"
        },
        {
          "name": "finalPoolTotal",
          "type": "uint256"
        }
      ],
      "payable": false,
      "stateMutability": "view",
      "type": "function"
    },
    {
      "constant": false,
      "inputs": [],
      "name": "lock16Fund",
      "outputs": [],
      "payable": false,
      "stateMutability": "nonpayable",
      "type": "function"
    },
    {
      "constant": false,
      "inputs": [
        {
          "name": "teamToken",
          "type": "uint256"
        }
      ],
      "name": "distribute16PrizeWinners",
      "outputs": [],
      "payable": false,
      "stateMutability": "nonpayable",
      "type": "function"
    },
    {
      "constant": false,
      "inputs": [
        {
          "name": "teamToken",
          "type": "uint256"
        }
      ],
      "name": "distributeQuarterPrizeWinners",
      "outputs": [],
      "payable": false,
      "stateMutability": "nonpayable",
      "type": "function"
    },
    {
      "constant": false,
      "inputs": [
        {
          "name": "teamToken",
          "type": "uint256"
        }
      ],
      "name": "distributeSemiPrizeWinners",
      "outputs": [],
      "payable": false,
      "stateMutability": "nonpayable",
      "type": "function"
    },
    {
      "constant": false,
      "inputs": [
        {
          "name": "teamToken",
          "type": "uint256"
        }
      ],
      "name": "distributeFinalPrizeWinners",
      "outputs": [],
      "payable": false,
      "stateMutability": "nonpayable",
      "type": "function"
    },
    {
      "constant": false,
      "inputs": [],
      "name": "lockQuarterFund",
      "outputs": [],
      "payable": false,
      "stateMutability": "nonpayable",
      "type": "function"
    },
    {
      "constant": false,
      "inputs": [],
      "name": "lockSemiFund",
      "outputs": [],
      "payable": false,
      "stateMutability": "nonpayable",
      "type": "function"
    },
    {
      "constant": true,
      "inputs": [
        {
          "name": "_owner",
          "type": "address"
        }
      ],
      "name": "balanceOf",
      "outputs": [
        {
          "name": "balance",
          "type": "uint256"
        }
      ],
      "payable": false,
      "stateMutability": "view",
      "type": "function"
    },
    {
      "constant": true,
      "inputs": [],
      "name": "implementsERC721",
      "outputs": [
        {
          "name": "",
          "type": "bool"
        }
      ],
      "payable": false,
      "stateMutability": "pure",
      "type": "function"
    },
    {
      "constant": true,
      "inputs": [],
      "name": "tokenName",
      "outputs": [
        {
          "name": "",
          "type": "string"
        }
      ],
      "payable": false,
      "stateMutability": "pure",
      "type": "function"
    },
    {
      "constant": true,
      "inputs": [],
      "name": "symbol",
      "outputs": [
        {
          "name": "",
          "type": "string"
        }
      ],
      "payable": false,
      "stateMutability": "pure",
      "type": "function"
    },
    {
      "constant": true,
      "inputs": [
        {
          "name": "_tokenId",
          "type": "uint256"
        }
      ],
      "name": "ownerOf",
      "outputs": [
        {
          "name": "owner",
          "type": "address"
        }
      ],
      "payable": false,
      "stateMutability": "view",
      "type": "function"
    },
    {
      "constant": false,
      "inputs": [
        {
          "name": "_tokenId",
          "type": "uint256"
        }
      ],
      "name": "takeOwnership",
      "outputs": [],
      "payable": false,
      "stateMutability": "nonpayable",
      "type": "function"
    },
    {
      "constant": true,
      "inputs": [],
      "name": "totalSupply",
      "outputs": [
        {
          "name": "total",
          "type": "uint256"
        }
      ],
      "payable": false,
      "stateMutability": "view",
      "type": "function"
    },
    {
      "constant": false,
      "inputs": [
        {
          "name": "_from",
          "type": "address"
        },
        {
          "name": "_to",
          "type": "address"
        },
        {
          "name": "_tokenId",
          "type": "uint256"
        }
      ],
      "name": "transferFrom",
      "outputs": [],
      "payable": false,
      "stateMutability": "nonpayable",
      "type": "function"
    },
    {
      "constant": false,
      "inputs": [
        {
          "name": "_to",
          "type": "address"
        },
        {
          "name": "_tokenId",
          "type": "uint256"
        }
      ],
      "name": "transfer",
      "outputs": [],
      "payable": false,
      "stateMutability": "nonpayable",
      "type": "function"
    },
    {
      "constant": false,
      "inputs": [
        {
          "name": "_to",
          "type": "address"
        },
        {
          "name": "_tokenId",
          "type": "uint256"
        }
      ],
      "name": "approve",
      "outputs": [],
      "payable": false,
      "stateMutability": "nonpayable",
      "type": "function"
    },
    {
      "constant": false,
      "inputs": [],
      "name": "destroy",
      "outputs": [],
      "payable": false,
      "stateMutability": "nonpayable",
      "type": "function"
    },
    {
      "constant": false,
      "inputs": [],
      "name": "createTeams",
      "outputs": [],
      "payable": false,
      "stateMutability": "nonpayable",
      "type": "function"
    },
    {
      "constant": false,
      "inputs": [],
      "name": "_createMatch",
      "outputs": [
        {
          "name": "",
          "type": "bool"
        }
      ],
      "payable": false,
      "stateMutability": "nonpayable",
      "type": "function"
    }
  ],
  "bytecode": "0x6080604052662386f26fc10000600055680ad78ebc5ac620000060015560056002556019600355604660045534801561003757600080fd5b5033601360006101000a81548173ffffffffffffffffffffffffffffffffffffffff021916908373ffffffffffffffffffffffffffffffffffffffff16021790555033601460006101000a81548173ffffffffffffffffffffffffffffffffffffffff021916908373ffffffffffffffffffffffffffffffffffffffff16021790555060006008600001819055506000600860010160006101000a81548160ff02191690831515021790555060006008600201819055506000600860030160006101000a81548160ff02191690831515021790555060006008600401819055506000600860050160006101000a81548160ff02191690831515021790555060006008600601819055506150d38061014f6000396000f3006080604052600436106101cc576000357c0100000000000000000000000000000000000000000000000000000000900463ffffffff1680628e0f1b146101d1578063095ea7b3146103395780630feb172f146103865780631051db34146103a657806312065fe0146103d557806318160ddd1461040057806323b872dd1461042b5780632a9fabd21461049857806331574cdf146104da57806332b64425146105475780633b483b3b146105765780633c716e81146105a35780633d092b3d146105f25780634768d4ef14610674578063488c2a4d146106df5780636352211e1461070c5780636c02a931146107795780636de55a4a146108095780636f9fb98a1461083857806370a082311461086357806374dd691c146108ba5780637b672b1d146108e757806383197ef01461093e578063884bf67c146109555780638961d3d4146109b65780638acfb6b114610a195780638c7a784614610a3057806395d89b4114610a87578063a9059cbb14610b17578063b2e6ceeb14610b64578063b820ba9714610b91578063bbe4fd5014610ba8578063c845a1a214610bd3578063ca4b208b14610bea578063f64dd68814610c41578063f8b9bb3b14610c6e578063fe03809314610d26575b600080fd5b3480156101dd57600080fd5b506101fc60048036038101908080359060200190929190505050610d3d565b6040518089815260200180602001806020018881526020018781526020018681526020018581526020018473ffffffffffffffffffffffffffffffffffffffff1673ffffffffffffffffffffffffffffffffffffffff16815260200183810383528a818151815260200191508051906020019080838360005b83811015610290578082015181840152602081019050610275565b50505050905090810190601f1680156102bd5780820380516001836020036101000a031916815260200191505b50838103825289818151815260200191508051906020019080838360005b838110156102f65780820151818401526020810190506102db565b50505050905090810190601f1680156103235780820380516001836020036101000a031916815260200191505b509a505050505050505050505060405180910390f35b34801561034557600080fd5b50610384600480360381019080803573ffffffffffffffffffffffffffffffffffffffff16906020019092919080359060200190929190505050610f0d565b005b6103a460048036038101908080359060200190929190505050610fdd565b005b3480156103b257600080fd5b506103bb611811565b604051808215151515815260200191505060405180910390f35b3480156103e157600080fd5b506103ea61181a565b6040518082815260200191505060405180910390f35b34801561040c57600080fd5b50610415611861565b6040518082815260200191505060405180910390f35b34801561043757600080fd5b50610496600480360381019080803573ffffffffffffffffffffffffffffffffffffffff169060200190929190803573ffffffffffffffffffffffffffffffffffffffff1690602001909291908035906020019092919050505061186e565b005b6104c0600480360381019080803590602001909291908035906020019092919050505061195c565b604051808215151515815260200191505060405180910390f35b3480156104e657600080fd5b5061050560048036038101908080359060200190929190505050611ad1565b604051808273ffffffffffffffffffffffffffffffffffffffff1673ffffffffffffffffffffffffffffffffffffffff16815260200191505060405180910390f35b34801561055357600080fd5b5061055c611b04565b604051808215151515815260200191505060405180910390f35b34801561058257600080fd5b506105a160048036038101908080359060200190929190505050611ce1565b005b3480156105af57600080fd5b506105d86004803603810190808035906020019092919080359060200190929190505050611f90565b604051808215151515815260200191505060405180910390f35b3480156105fe57600080fd5b5061061d60048036038101908080359060200190929190505050612360565b6040518080602001828103825283818151815260200191508051906020019060200280838360005b83811015610660578082015181840152602081019050610645565b505050509050019250505060405180910390f35b34801561068057600080fd5b5061069f600480360381019080803590602001909291905050506124b6565b6040518088815260200187815260200186815260200185815260200184815260200183815260200182815260200197505050505050505060405180910390f35b3480156106eb57600080fd5b5061070a600480360381019080803590602001909291905050506124f8565b005b34801561071857600080fd5b50610737600480360381019080803590602001909291905050506127a7565b604051808273ffffffffffffffffffffffffffffffffffffffff1673ffffffffffffffffffffffffffffffffffffffff16815260200191505060405180910390f35b34801561078557600080fd5b5061078e612823565b6040518080602001828103825283818151815260200191508051906020019080838360005b838110156107ce5780820151818401526020810190506107b3565b50505050905090810190601f1680156107fb5780820380516001836020036101000a031916815260200191505b509250505060405180910390f35b34801561081557600080fd5b5061081e612860565b604051808215151515815260200191505060405180910390f35b34801561084457600080fd5b5061084d612998565b6040518082815260200191505060405180910390f35b34801561086f57600080fd5b506108a4600480360381019080803573ffffffffffffffffffffffffffffffffffffffff1690602001909291905050506129b7565b6040518082815260200191505060405180910390f35b3480156108c657600080fd5b506108e560048036038101908080359060200190929190505050612a00565b005b3480156108f357600080fd5b506108fc612caf565b604051808273ffffffffffffffffffffffffffffffffffffffff1673ffffffffffffffffffffffffffffffffffffffff16815260200191505060405180910390f35b34801561094a57600080fd5b50610953612cd5565b005b34801561096157600080fd5b5061096a612d6c565b6040518088815260200187151515158152602001868152602001851515151581526020018481526020018315151515815260200182815260200197505050505050505060405180910390f35b3480156109c257600080fd5b506109ff60048036038101908080359060200190929190803590602001909291908035906020019092919080359060200190929190505050612ddf565b604051808215151515815260200191505060405180910390f35b348015610a2557600080fd5b50610a2e612f40565b005b348015610a3c57600080fd5b50610a71600480360381019080803573ffffffffffffffffffffffffffffffffffffffff169060200190929190505050612fbc565b6040518082815260200191505060405180910390f35b348015610a9357600080fd5b50610a9c612fd4565b6040518080602001828103825283818151815260200191508051906020019080838360005b83811015610adc578082015181840152602081019050610ac1565b50505050905090810190601f168015610b095780820380516001836020036101000a031916815260200191505b509250505060405180910390f35b348015610b2357600080fd5b50610b62600480360381019080803573ffffffffffffffffffffffffffffffffffffffff16906020019092919080359060200190929190505050613011565b005b348015610b7057600080fd5b50610b8f600480360381019080803590602001909291905050506130ae565b005b348015610b9d57600080fd5b50610ba661315e565b005b348015610bb457600080fd5b50610bbd6131da565b6040518082815260200191505060405180910390f35b348015610bdf57600080fd5b50610be86131e2565b005b348015610bf657600080fd5b50610bff61325e565b604051808273ffffffffffffffffffffffffffffffffffffffff1673ffffffffffffffffffffffffffffffffffffffff16815260200191505060405180910390f35b348015610c4d57600080fd5b50610c6c60048036038101908080359060200190929190505050613284565b005b348015610c7a57600080fd5b50610ca36004803603810190808035906020019092919080359060200190929190505050613529565b604051808581526020018481526020018373ffffffffffffffffffffffffffffffffffffffff1673ffffffffffffffffffffffffffffffffffffffff1681526020018273ffffffffffffffffffffffffffffffffffffffff1673ffffffffffffffffffffffffffffffffffffffff16815260200194505050505060405180910390f35b348015610d3257600080fd5b50610d3b61360b565b005b6000606080600080600080600080600f805490508a101515610d5e57600080fd5b600f8a815481101515610d6d57fe5b90600052602060002090600902019050899850806000018054600181600116156101000203166002900480601f016020809104026020016040519081016040528092919081815260200182805460018160011615610100020316600290048015610e185780601f10610ded57610100808354040283529160200191610e18565b820191906000526020600020905b815481529060010190602001808311610dfb57829003601f168201915b50505050509750806001018054600181600116156101000203166002900480601f016020809104026020016040519081016040528092919081815260200182805460018160011615610100020316600290048015610eb75780601f10610e8c57610100808354040283529160200191610eb7565b820191906000526020600020905b815481529060010190602001808311610e9a57829003601f168201915b50505050509650806002015495508060030154945080600401549350806005015492508060060160009054906101000a900473ffffffffffffffffffffffffffffffffffffffff16915050919395975091939597565b610f173382614a40565b1515610f2257600080fd5b816011600083815260200190815260200160002060006101000a81548173ffffffffffffffffffffffffffffffffffffffff021916908373ffffffffffffffffffffffffffffffffffffffff1602179055508173ffffffffffffffffffffffffffffffffffffffff163373ffffffffffffffffffffffffffffffffffffffff167f8c5be1e5ebec7d5bd14f71427d1e84f3dd0314c0f7b2291e5b200ac8c7c3b925836040518082815260200191505060405180910390a35050565b600080600080600080600080600080600f8b815481101515610ffb57fe5b906000526020600020906009020160060160009054906101000a900473ffffffffffffffffffffffffffffffffffffffff169950600f8b81548110151561103e57fe5b90600052602060002090600902016002015498503373ffffffffffffffffffffffffffffffffffffffff168a73ffffffffffffffffffffffffffffffffffffffff161415151561108d57600080fd5b88341015151561109c57600080fd5b600f8b8154811015156110ab57fe5b906000526020600020906009020197508896506001548910156110e0576110dd6110d68a60c8614aac565b6064614ae4565b96505b6110ee348960030154614afa565b9550857f4173e2d6c5c6a936ddb55d9a8eb7d92c164c5876cd378b1a34dfdfeda171dd6460405160405180910390a2611128866064614ae4565b9450847f4173e2d6c5c6a936ddb55d9a8eb7d92c164c5876cd378b1a34dfdfeda171dd6460405160405180910390a261116385600254614aac565b9350837f4173e2d6c5c6a936ddb55d9a8eb7d92c164c5876cd378b1a34dfdfeda171dd6460405160405180910390a261119e85600354614aac565b9250827f4173e2d6c5c6a936ddb55d9a8eb7d92c164c5876cd378b1a34dfdfeda171dd6460405160405180910390a26111e66111dc86600454614aac565b8960030154614b13565b9150817f4173e2d6c5c6a936ddb55d9a8eb7d92c164c5876cd378b1a34dfdfeda171dd6460405160405180910390a261128060106000601460009054906101000a900473ffffffffffffffffffffffffffffffffffffffff1673ffffffffffffffffffffffffffffffffffffffff1673ffffffffffffffffffffffffffffffffffffffff1681526020019081526020016000205485614b13565b60106000601460009054906101000a900473ffffffffffffffffffffffffffffffffffffffff1673ffffffffffffffffffffffffffffffffffffffff1673ffffffffffffffffffffffffffffffffffffffff1681526020019081526020016000208190555060106000601460009054906101000a900473ffffffffffffffffffffffffffffffffffffffff1673ffffffffffffffffffffffffffffffffffffffff1673ffffffffffffffffffffffffffffffffffffffff168152602001908152602001600020547f4173e2d6c5c6a936ddb55d9a8eb7d92c164c5876cd378b1a34dfdfeda171dd6460405160405180910390a26113bc601060008c73ffffffffffffffffffffffffffffffffffffffff1673ffffffffffffffffffffffffffffffffffffffff1681526020019081526020016000205483614b13565b601060008c73ffffffffffffffffffffffffffffffffffffffff1673ffffffffffffffffffffffffffffffffffffffff16815260200190815260200160002081905550601060008b73ffffffffffffffffffffffffffffffffffffffff1673ffffffffffffffffffffffffffffffffffffffff168152602001908152602001600020547f4173e2d6c5c6a936ddb55d9a8eb7d92c164c5876cd378b1a34dfdfeda171dd6460405160405180910390a260009050600860010160009054906101000a900460ff1615156114e657611493836004614ae4565b9050806008600001600082825401925050819055508060086002016000828254019250508190555080600860040160008282540192505081905550806008600601600082825401925050819055506115b1565b600860030160009054906101000a900460ff16151561154a5761150a836003614ae4565b90508060086002016000828254019250508190555080600860040160008282540192505081905550806008600601600082825401925050819055506115b0565b600860050160009054906101000a900460ff16151561159b5761156e836002614ae4565b905080600860040160008282540192505081905550806008600601600082825401925050819055506115af565b826008600601600082825401925050819055505b5b5b338860060160006101000a81548173ffffffffffffffffffffffffffffffffffffffff021916908373ffffffffffffffffffffffffffffffffffffffff1602179055508688600201819055508888600301819055506080604051908101604052808a81526020014281526020018b73ffffffffffffffffffffffffffffffffffffffff1681526020013373ffffffffffffffffffffffffffffffffffffffff168152508860070160008a6004016000815480929190600101919050558152602001908152602001600020600082015181600001556020820151816001015560408201518160020160006101000a81548173ffffffffffffffffffffffffffffffffffffffff021916908373ffffffffffffffffffffffffffffffffffffffff16021790555060608201518160030160006101000a81548173ffffffffffffffffffffffffffffffffffffffff021916908373ffffffffffffffffffffffffffffffffffffffff160217905550905050600660003373ffffffffffffffffffffffffffffffffffffffff1673ffffffffffffffffffffffffffffffffffffffff168152602001908152602001600020600081548092919060010191905055503373ffffffffffffffffffffffffffffffffffffffff168a73ffffffffffffffffffffffffffffffffffffffff168c7f29cb3534bf00a4a894fb4705b39c75a53fff77e1a5d721117e82fd96a90570fc8c8b423073ffffffffffffffffffffffffffffffffffffffff16316040518085815260200184815260200183815260200182815260200194505050505060405180910390a45050505050505050505050565b60006001905090565b6000601060003373ffffffffffffffffffffffffffffffffffffffff1673ffffffffffffffffffffffffffffffffffffffff16815260200190815260200160002054905090565b6000600f80549050905090565b600f8181548110151561187d57fe5b906000526020600020906009020160060160009054906101000a900473ffffffffffffffffffffffffffffffffffffffff1673ffffffffffffffffffffffffffffffffffffffff163373ffffffffffffffffffffffffffffffffffffffff161415156118e857600080fd5b8173ffffffffffffffffffffffffffffffffffffffff168373ffffffffffffffffffffffffffffffffffffffff161415151561192357600080fd5b61192c82614b2f565b151561193757600080fd5b6119418282614b68565b151561194c57600080fd5b611957838383614bd4565b505050565b60008060008085101580156119715750600084115b801561197d5750600484105b151561198857600080fd5b60003411151561199757600080fd5b601460009054906101000a900473ffffffffffffffffffffffffffffffffffffffff1673ffffffffffffffffffffffffffffffffffffffff163373ffffffffffffffffffffffffffffffffffffffff16141515156119f457600080fd5b60126000868152602001908152602001600020915060008260040154148015611a205750428260010154115b1515611a2b57600080fd5b816007016000836006015481526020019081526020016000209050338160000160006101000a81548173ffffffffffffffffffffffffffffffffffffffff021916908373ffffffffffffffffffffffffffffffffffffffff160217905550348160010181905550838160020181905550611aa9826005015434614b13565b8260050181905550816006016000815480929190600101919050555060019250505092915050565b60116020528060005260406000206000915054906101000a900473ffffffffffffffffffffffffffffffffffffffff1681565b6000601360009054906101000a900473ffffffffffffffffffffffffffffffffffffffff1673ffffffffffffffffffffffffffffffffffffffff163373ffffffffffffffffffffffffffffffffffffffff16141515611b6257600080fd5b611b756000635b23d47060016000612ddf565b50611b896001635b23aa4060036002612ddf565b50611b9d6002635b23d47060066007612ddf565b50611bb16003635b23fea060056004612ddf565b50611bc56004635b24dfa060096008612ddf565b50611bd96005635b2509d0600d600c612ddf565b50611bed6006635b253400600b600a612ddf565b50611c016007635b255e30600f600e612ddf565b50611c156008635b264d4060136012612ddf565b50611c296009635b26777060156014612ddf565b50611c3d600a635b26a1a060116010612ddf565b50611c51600b635b279ec060176016612ddf565b50611c65600c635b27c8f060186019612ddf565b50611c79600d635b27f320601b601a612ddf565b50611c8d600e635b28f040601f601e612ddf565b50611ca1600f635b291a70601d601c612ddf565b50611cb56010635b2944a060026000612ddf565b50611cc96011635b2a41c060066004612ddf565b50611cdd6012635b2a6bf060016003612ddf565b5090565b600080601360009054906101000a900473ffffffffffffffffffffffffffffffffffffffff1673ffffffffffffffffffffffffffffffffffffffff163373ffffffffffffffffffffffffffffffffffffffff16141515611d4057600080fd5b611d506008600001546008614ae4565b9150600f83815481101515611d6157fe5b9060005260206000209060090201905060008160050154141515611d8457600080fd5b611df1601060008360060160009054906101000a900473ffffffffffffffffffffffffffffffffffffffff1673ffffffffffffffffffffffffffffffffffffffff1673ffffffffffffffffffffffffffffffffffffffff1681526020019081526020016000205483614b13565b601060008360060160009054906101000a900473ffffffffffffffffffffffffffffffffffffffff1673ffffffffffffffffffffffffffffffffffffffff1673ffffffffffffffffffffffffffffffffffffffff168152602001908152602001600020819055506080604051908101604052808381526020014281526020018260060160009054906101000a900473ffffffffffffffffffffffffffffffffffffffff1673ffffffffffffffffffffffffffffffffffffffff1681526020016040805190810160405280601481526020017f5369787465656e20526f756e642057696e6e6572000000000000000000000000815250815250816008016000836005016000815480929190600101919050558152602001908152602001600020600082015181600001556020820151816001015560408201518160020160006101000a81548173ffffffffffffffffffffffffffffffffffffffff021916908373ffffffffffffffffffffffffffffffffffffffff1602179055506060820151816003019080519060200190611f87929190614f38565b50905050505050565b600080600080611f9e614fb8565b6000806000806000611fae614fb8565b601360009054906101000a900473ffffffffffffffffffffffffffffffffffffffff1673ffffffffffffffffffffffffffffffffffffffff163373ffffffffffffffffffffffffffffffffffffffff1614151561200a57600080fd5b60008d1015151561201a57600080fd5b60008c11801561202a575060048c105b151561203557600080fd5b601260008e8152602001908152602001600020995060008a6004015414151561205d57600080fd5b8b8a60040181905550600098506000975089600601547f4173e2d6c5c6a936ddb55d9a8eb7d92c164c5876cd378b1a34dfdfeda171dd6460405160405180910390a2600097505b896006015488101561217857896007016000898152602001908152602001600020606060405190810160405290816000820160009054906101000a900473ffffffffffffffffffffffffffffffffffffffff1673ffffffffffffffffffffffffffffffffffffffff1673ffffffffffffffffffffffffffffffffffffffff1681526020016001820154815260200160028201548152505096508b876040015114158015612155575060008760200151115b1561216b57612168898860200151614b13565b98505b87806001019850506120a4565b60008911801561218b5750888a60050154115b1561234c5761219b896064614ae4565b95506121a8866050614aac565b94506121b88a600501548a614afa565b9350600097506000925060009150600097505b896006015488101561234b57896007016000898152602001908152602001600020606060405190810160405290816000820160009054906101000a900473ffffffffffffffffffffffffffffffffffffffff1673ffffffffffffffffffffffffffffffffffffffff1673ffffffffffffffffffffffffffffffffffffffff1681526020016001820154815260200160028201548152505090508b816040015114801561227b575060008160200151115b1561233e5761228e816020015185614ae4565b92506122a781602001516122a28786614aac565b614b13565b91506122f660106000836000015173ffffffffffffffffffffffffffffffffffffffff1673ffffffffffffffffffffffffffffffffffffffff1681526020019081526020016000205483614b13565b60106000836000015173ffffffffffffffffffffffffffffffffffffffff1673ffffffffffffffffffffffffffffffffffffffff168152602001908152602001600020819055505b87806001019850506121cb565b5b60019a505050505050505050505092915050565b6060600060606000841015151561237657600080fd5b60126000858152602001908152602001600020915060076040519080825280602002602001820160405280156123bb5781602001602082028038833980820191505090505b50905081600001548160008151811015156123d257fe5b906020019060200201818152505081600101548160018151811015156123f457fe5b9060200190602002018181525050816002015481600281518110151561241657fe5b9060200190602002018181525050816003015481600381518110151561243857fe5b9060200190602002018181525050816004015481600481518110151561245a57fe5b9060200190602002018181525050816005015481600581518110151561247c57fe5b9060200190602002018181525050816006015481600681518110151561249e57fe5b90602001906020020181815250508092505050919050565b60126020528060005260406000206000915090508060000154908060010154908060020154908060030154908060040154908060050154908060060154905087565b600080601360009054906101000a900473ffffffffffffffffffffffffffffffffffffffff1673ffffffffffffffffffffffffffffffffffffffff163373ffffffffffffffffffffffffffffffffffffffff1614151561255757600080fd5b6125676008600201546004614ae4565b9150600f8381548110151561257857fe5b906000526020600020906009020190506001816005015414151561259b57600080fd5b612608601060008360060160009054906101000a900473ffffffffffffffffffffffffffffffffffffffff1673ffffffffffffffffffffffffffffffffffffffff1673ffffffffffffffffffffffffffffffffffffffff1681526020019081526020016000205483614b13565b601060008360060160009054906101000a900473ffffffffffffffffffffffffffffffffffffffff1673ffffffffffffffffffffffffffffffffffffffff1673ffffffffffffffffffffffffffffffffffffffff168152602001908152602001600020819055506080604051908101604052808381526020014281526020018260060160009054906101000a900473ffffffffffffffffffffffffffffffffffffffff1673ffffffffffffffffffffffffffffffffffffffff1681526020016040805190810160405280600e81526020017f517561727465722057696e6e6572000000000000000000000000000000000000815250815250816008016000836005016000815480929190600101919050558152602001908152602001600020600082015181600001556020820151816001015560408201518160020160006101000a81548173ffffffffffffffffffffffffffffffffffffffff021916908373ffffffffffffffffffffffffffffffffffffffff160217905550606082015181600301908051906020019061279e929190614f38565b50905050505050565b60006007600083815260200190815260200160002060009054906101000a900473ffffffffffffffffffffffffffffffffffffffff169050600073ffffffffffffffffffffffffffffffffffffffff168173ffffffffffffffffffffffffffffffffffffffff161415151561281b57600080fd5b809050919050565b60606040805190810160405280600d81526020017f537061726b437570546f6b656e00000000000000000000000000000000000000815250905090565b600080600560019054906101000a900460ff161561287d57600080fd5b6001600560016101000a81548160ff021916908315150217905550601060003373ffffffffffffffffffffffffffffffffffffffff1673ffffffffffffffffffffffffffffffffffffffff1681526020019081526020016000205490506000811115156128e957600080fd5b6000601060003373ffffffffffffffffffffffffffffffffffffffff1673ffffffffffffffffffffffffffffffffffffffff168152602001908152602001600020819055503373ffffffffffffffffffffffffffffffffffffffff166108fc829081150290604051600060405180830381858888f19350505050158015612974573d6000803e3d6000fd5b50600191506000600560016101000a81548160ff0219169083151502179055505090565b60003073ffffffffffffffffffffffffffffffffffffffff1631905090565b6000600660008373ffffffffffffffffffffffffffffffffffffffff1673ffffffffffffffffffffffffffffffffffffffff168152602001908152602001600020549050919050565b600080601360009054906101000a900473ffffffffffffffffffffffffffffffffffffffff1673ffffffffffffffffffffffffffffffffffffffff163373ffffffffffffffffffffffffffffffffffffffff16141515612a5f57600080fd5b612a6f6008600401546002614ae4565b9150600f83815481101515612a8057fe5b9060005260206000209060090201905060028160050154141515612aa357600080fd5b612b10601060008360060160009054906101000a900473ffffffffffffffffffffffffffffffffffffffff1673ffffffffffffffffffffffffffffffffffffffff1673ffffffffffffffffffffffffffffffffffffffff1681526020019081526020016000205483614b13565b601060008360060160009054906101000a900473ffffffffffffffffffffffffffffffffffffffff1673ffffffffffffffffffffffffffffffffffffffff1673ffffffffffffffffffffffffffffffffffffffff168152602001908152602001600020819055506080604051908101604052808381526020014281526020018260060160009054906101000a900473ffffffffffffffffffffffffffffffffffffffff1673ffffffffffffffffffffffffffffffffffffffff1681526020016040805190810160405280601381526020017f53656d692d517561727465722057696e6e657200000000000000000000000000815250815250816008016000836005016000815480929190600101919050558152602001908152602001600020600082015181600001556020820151816001015560408201518160020160006101000a81548173ffffffffffffffffffffffffffffffffffffffff021916908373ffffffffffffffffffffffffffffffffffffffff1602179055506060820151816003019080519060200190612ca6929190614f38565b50905050505050565b601360009054906101000a900473ffffffffffffffffffffffffffffffffffffffff1681565b601360009054906101000a900473ffffffffffffffffffffffffffffffffffffffff1673ffffffffffffffffffffffffffffffffffffffff163373ffffffffffffffffffffffffffffffffffffffff16141515612d3157600080fd5b601360009054906101000a900473ffffffffffffffffffffffffffffffffffffffff1673ffffffffffffffffffffffffffffffffffffffff16ff5b60008060008060008060006008600001549650600860010160009054906101000a900460ff1695506008600201549450600860030160009054906101000a900460ff169350600860050160009054906101000a900460ff1691506008600401549250600860060154905090919293949596565b6000612de9614ff0565b601360009054906101000a900473ffffffffffffffffffffffffffffffffffffffff1673ffffffffffffffffffffffffffffffffffffffff163373ffffffffffffffffffffffffffffffffffffffff16141515612e4557600080fd5b4285111515612e5357600080fd5b60008610151515612e6357600080fd5b60008410158015612e75575060208411155b1515612e8057600080fd5b60008310158015612e92575060208311155b1515612e9d57600080fd5b60e0604051908101604052808781526020018681526020018581526020018481526020016000815260200160008152602001600081525090508060126000888152602001908152602001600020600082015181600001556020820151816001015560408201518160020155606082015181600301556080820151816004015560a0820151816005015560c082015181600601559050506001915050949350505050565b601360009054906101000a900473ffffffffffffffffffffffffffffffffffffffff1673ffffffffffffffffffffffffffffffffffffffff163373ffffffffffffffffffffffffffffffffffffffff16141515612f9c57600080fd5b6001600860030160006101000a81548160ff021916908315150217905550565b60106020528060005260406000206000915090505481565b60606040805190810160405280600381526020017f5343540000000000000000000000000000000000000000000000000000000000815250905090565b600f8181548110151561302057fe5b906000526020600020906009020160060160009054906101000a900473ffffffffffffffffffffffffffffffffffffffff1673ffffffffffffffffffffffffffffffffffffffff163373ffffffffffffffffffffffffffffffffffffffff1614151561308b57600080fd5b61309482614b2f565b151561309f57600080fd5b6130aa338383614bd4565b5050565b6000803391506007600084815260200190815260200160002060009054906101000a900473ffffffffffffffffffffffffffffffffffffffff1690508173ffffffffffffffffffffffffffffffffffffffff168173ffffffffffffffffffffffffffffffffffffffff161415151561312557600080fd5b61312e82614b2f565b151561313957600080fd5b6131438284614b68565b151561314e57600080fd5b613159818385614bd4565b505050565b601360009054906101000a900473ffffffffffffffffffffffffffffffffffffffff1673ffffffffffffffffffffffffffffffffffffffff163373ffffffffffffffffffffffffffffffffffffffff161415156131ba57600080fd5b6001600860050160006101000a81548160ff021916908315150217905550565b600042905090565b601360009054906101000a900473ffffffffffffffffffffffffffffffffffffffff1673ffffffffffffffffffffffffffffffffffffffff163373ffffffffffffffffffffffffffffffffffffffff1614151561323e57600080fd5b6001600860010160006101000a81548160ff021916908315150217905550565b601460009054906101000a900473ffffffffffffffffffffffffffffffffffffffff1681565b6000601360009054906101000a900473ffffffffffffffffffffffffffffffffffffffff1673ffffffffffffffffffffffffffffffffffffffff163373ffffffffffffffffffffffffffffffffffffffff161415156132e257600080fd5b600f828154811015156132f157fe5b906000526020600020906009020190506003816005015414151561331457600080fd5b613386601060008360060160009054906101000a900473ffffffffffffffffffffffffffffffffffffffff1673ffffffffffffffffffffffffffffffffffffffff1673ffffffffffffffffffffffffffffffffffffffff16815260200190815260200160002054600860060154614b13565b601060008360060160009054906101000a900473ffffffffffffffffffffffffffffffffffffffff1673ffffffffffffffffffffffffffffffffffffffff1673ffffffffffffffffffffffffffffffffffffffff1681526020019081526020016000208190555060806040519081016040528060086006015481526020014281526020018260060160009054906101000a900473ffffffffffffffffffffffffffffffffffffffff1673ffffffffffffffffffffffffffffffffffffffff1681526020016040805190810160405280600c81526020017f46696e616c2057696e6e65720000000000000000000000000000000000000000815250815250816008016000836005016000815480929190600101919050558152602001908152602001600020600082015181600001556020820151816001015560408201518160020160006101000a81548173ffffffffffffffffffffffffffffffffffffffff021916908373ffffffffffffffffffffffffffffffffffffffff1602179055506060820151816003019080519060200190613521929190614f38565b509050505050565b6000806000806000600f805490508710151561354457600080fd5b600f8781548110151561355357fe5b9060005260206000209060090201600401548610151561357257600080fd5b600f8781548110151561358157fe5b90600052602060002090600902016007016000878152602001908152602001600020905080600001549450806001015493508060020160009054906101000a900473ffffffffffffffffffffffffffffffffffffffff1692508060030160009054906101000a900473ffffffffffffffffffffffffffffffffffffffff1691505092959194509250565b601360009054906101000a900473ffffffffffffffffffffffffffffffffffffffff1673ffffffffffffffffffffffffffffffffffffffff163373ffffffffffffffffffffffffffffffffffffffff1614151561366757600080fd5b600560009054906101000a900460ff1615151561368357600080fd5b6137206040805190810160405280600681526020017f52757373696100000000000000000000000000000000000000000000000000008152506040805190810160405280600381526020017f5255530000000000000000000000000000000000000000000000000000000000815250600054600080601460009054906101000a900473ffffffffffffffffffffffffffffffffffffffff16614ded565b6137bd6040805190810160405280600c81526020017f53617564692041726162696100000000000000000000000000000000000000008152506040805190810160405280600381526020017f4b53410000000000000000000000000000000000000000000000000000000000815250600054600080601460009054906101000a900473ffffffffffffffffffffffffffffffffffffffff16614ded565b61385a6040805190810160405280600581526020017f45677970740000000000000000000000000000000000000000000000000000008152506040805190810160405280600381526020017f4547590000000000000000000000000000000000000000000000000000000000815250600054600080601460009054906101000a900473ffffffffffffffffffffffffffffffffffffffff16614ded565b6138f76040805190810160405280600781526020017f55727567756179000000000000000000000000000000000000000000000000008152506040805190810160405280600381526020017f5552550000000000000000000000000000000000000000000000000000000000815250600054600080601460009054906101000a900473ffffffffffffffffffffffffffffffffffffffff16614ded565b6139946040805190810160405280600881526020017f506f72747567616c0000000000000000000000000000000000000000000000008152506040805190810160405280600381526020017f504f520000000000000000000000000000000000000000000000000000000000815250600054600080601460009054906101000a900473ffffffffffffffffffffffffffffffffffffffff16614ded565b613a316040805190810160405280600581526020017f537061696e0000000000000000000000000000000000000000000000000000008152506040805190810160405280600381526020017f5350410000000000000000000000000000000000000000000000000000000000815250600054600080601460009054906101000a900473ffffffffffffffffffffffffffffffffffffffff16614ded565b613ace6040805190810160405280600781526020017f4d6f726f63636f000000000000000000000000000000000000000000000000008152506040805190810160405280600381526020017f4d4f520000000000000000000000000000000000000000000000000000000000815250600054600080601460009054906101000a900473ffffffffffffffffffffffffffffffffffffffff16614ded565b613b6b6040805190810160405280600481526020017f4972616e000000000000000000000000000000000000000000000000000000008152506040805190810160405280600381526020017f49524e0000000000000000000000000000000000000000000000000000000000815250600054600080601460009054906101000a900473ffffffffffffffffffffffffffffffffffffffff16614ded565b613c086040805190810160405280600681526020017f4672616e636500000000000000000000000000000000000000000000000000008152506040805190810160405280600381526020017f4652410000000000000000000000000000000000000000000000000000000000815250600054600080601460009054906101000a900473ffffffffffffffffffffffffffffffffffffffff16614ded565b613ca56040805190810160405280600981526020017f4175737472616c696100000000000000000000000000000000000000000000008152506040805190810160405280600381526020017f4155530000000000000000000000000000000000000000000000000000000000815250600054600080601460009054906101000a900473ffffffffffffffffffffffffffffffffffffffff16614ded565b613d426040805190810160405280600481526020017f50657275000000000000000000000000000000000000000000000000000000008152506040805190810160405280600381526020017f5045520000000000000000000000000000000000000000000000000000000000815250600054600080601460009054906101000a900473ffffffffffffffffffffffffffffffffffffffff16614ded565b613ddf6040805190810160405280600781526020017f44656e6d61726b000000000000000000000000000000000000000000000000008152506040805190810160405280600381526020017f44454e0000000000000000000000000000000000000000000000000000000000815250600054600080601460009054906101000a900473ffffffffffffffffffffffffffffffffffffffff16614ded565b613e7c6040805190810160405280600981526020017f417267656e74696e6100000000000000000000000000000000000000000000008152506040805190810160405280600381526020017f4152470000000000000000000000000000000000000000000000000000000000815250600054600080601460009054906101000a900473ffffffffffffffffffffffffffffffffffffffff16614ded565b613f196040805190810160405280600781526020017f4963656c616e64000000000000000000000000000000000000000000000000008152506040805190810160405280600381526020017f4943450000000000000000000000000000000000000000000000000000000000815250600054600080601460009054906101000a900473ffffffffffffffffffffffffffffffffffffffff16614ded565b613fb66040805190810160405280600781526020017f43726f61746961000000000000000000000000000000000000000000000000008152506040805190810160405280600381526020017f43524f0000000000000000000000000000000000000000000000000000000000815250600054600080601460009054906101000a900473ffffffffffffffffffffffffffffffffffffffff16614ded565b6140536040805190810160405280600781526020017f4e696765726961000000000000000000000000000000000000000000000000008152506040805190810160405280600381526020017f4e47410000000000000000000000000000000000000000000000000000000000815250600054600080601460009054906101000a900473ffffffffffffffffffffffffffffffffffffffff16614ded565b6140f06040805190810160405280600681526020017f4272617a696c00000000000000000000000000000000000000000000000000008152506040805190810160405280600381526020017f42525a0000000000000000000000000000000000000000000000000000000000815250600054600080601460009054906101000a900473ffffffffffffffffffffffffffffffffffffffff16614ded565b61418d6040805190810160405280600b81526020017f537769747a65726c616e640000000000000000000000000000000000000000008152506040805190810160405280600381526020017f5357490000000000000000000000000000000000000000000000000000000000815250600054600080601460009054906101000a900473ffffffffffffffffffffffffffffffffffffffff16614ded565b61422a6040805190810160405280600a81526020017f436f7374612052696361000000000000000000000000000000000000000000008152506040805190810160405280600381526020017f4352430000000000000000000000000000000000000000000000000000000000815250600054600080601460009054906101000a900473ffffffffffffffffffffffffffffffffffffffff16614ded565b6142c76040805190810160405280600681526020017f53657262696100000000000000000000000000000000000000000000000000008152506040805190810160405280600381526020017f5345520000000000000000000000000000000000000000000000000000000000815250600054600080601460009054906101000a900473ffffffffffffffffffffffffffffffffffffffff16614ded565b6143646040805190810160405280600781526020017f4765726d616e79000000000000000000000000000000000000000000000000008152506040805190810160405280600381526020017f4745520000000000000000000000000000000000000000000000000000000000815250600054600080601460009054906101000a900473ffffffffffffffffffffffffffffffffffffffff16614ded565b6144016040805190810160405280600681526020017f4d657869636f00000000000000000000000000000000000000000000000000008152506040805190810160405280600381526020017f4d45580000000000000000000000000000000000000000000000000000000000815250600054600080601460009054906101000a900473ffffffffffffffffffffffffffffffffffffffff16614ded565b61449e6040805190810160405280600681526020017f53776564656e00000000000000000000000000000000000000000000000000008152506040805190810160405280600381526020017f5357450000000000000000000000000000000000000000000000000000000000815250600054600080601460009054906101000a900473ffffffffffffffffffffffffffffffffffffffff16614ded565b61453b6040805190810160405280600b81526020017f536f757468204b6f7265610000000000000000000000000000000000000000008152506040805190810160405280600381526020017f4b4f520000000000000000000000000000000000000000000000000000000000815250600054600080601460009054906101000a900473ffffffffffffffffffffffffffffffffffffffff16614ded565b6145d86040805190810160405280600781526020017f42656c6769756d000000000000000000000000000000000000000000000000008152506040805190810160405280600381526020017f42454c0000000000000000000000000000000000000000000000000000000000815250600054600080601460009054906101000a900473ffffffffffffffffffffffffffffffffffffffff16614ded565b6146756040805190810160405280600681526020017f50616e616d6100000000000000000000000000000000000000000000000000008152506040805190810160405280600381526020017f50414e0000000000000000000000000000000000000000000000000000000000815250600054600080601460009054906101000a900473ffffffffffffffffffffffffffffffffffffffff16614ded565b6147126040805190810160405280600781526020017f54756e69736961000000000000000000000000000000000000000000000000008152506040805190810160405280600381526020017f54554e0000000000000000000000000000000000000000000000000000000000815250600054600080601460009054906101000a900473ffffffffffffffffffffffffffffffffffffffff16614ded565b6147af6040805190810160405280600781526020017f456e676c616e64000000000000000000000000000000000000000000000000008152506040805190810160405280600381526020017f454e470000000000000000000000000000000000000000000000000000000000815250600054600080601460009054906101000a900473ffffffffffffffffffffffffffffffffffffffff16614ded565b61484c6040805190810160405280600681526020017f506f6c616e6400000000000000000000000000000000000000000000000000008152506040805190810160405280600381526020017f504f4c0000000000000000000000000000000000000000000000000000000000815250600054600080601460009054906101000a900473ffffffffffffffffffffffffffffffffffffffff16614ded565b6148e96040805190810160405280600781526020017f53656e6567616c000000000000000000000000000000000000000000000000008152506040805190810160405280600381526020017f53454e0000000000000000000000000000000000000000000000000000000000815250600054600080601460009054906101000a900473ffffffffffffffffffffffffffffffffffffffff16614ded565b6149866040805190810160405280600881526020017f436f6c6f6d6269610000000000000000000000000000000000000000000000008152506040805190810160405280600381526020017f434f4c0000000000000000000000000000000000000000000000000000000000815250600054600080601460009054906101000a900473ffffffffffffffffffffffffffffffffffffffff16614ded565b614a236040805190810160405280600581526020017f4a6170616e0000000000000000000000000000000000000000000000000000008152506040805190810160405280600381526020017f4a504e0000000000000000000000000000000000000000000000000000000000815250600054600080601460009054906101000a900473ffffffffffffffffffffffffffffffffffffffff16614ded565b6001600560006101000a81548160ff021916908315150217905550565b60006007600083815260200190815260200160002060009054906101000a900473ffffffffffffffffffffffffffffffffffffffff1673ffffffffffffffffffffffffffffffffffffffff168373ffffffffffffffffffffffffffffffffffffffff1614905092915050565b600080831415614abf5760009050614ade565b8183029050818382811515614ad057fe5b04141515614ada57fe5b8090505b92915050565b60008183811515614af157fe5b04905092915050565b6000828211151515614b0857fe5b818303905092915050565b60008183019050828110151515614b2657fe5b80905092915050565b60008073ffffffffffffffffffffffffffffffffffffffff168273ffffffffffffffffffffffffffffffffffffffff1614159050919050565b60008273ffffffffffffffffffffffffffffffffffffffff166011600084815260200190815260200160002060009054906101000a900473ffffffffffffffffffffffffffffffffffffffff1673ffffffffffffffffffffffffffffffffffffffff1614905092915050565b6000600f805490508211151515614bea57600080fd5b600f82815481101515614bf957fe5b90600052602060002090600902019050828160060160006101000a81548173ffffffffffffffffffffffffffffffffffffffff021916908373ffffffffffffffffffffffffffffffffffffffff160217905550826007600084815260200190815260200160002060006101000a81548173ffffffffffffffffffffffffffffffffffffffff021916908373ffffffffffffffffffffffffffffffffffffffff160217905550600660008473ffffffffffffffffffffffffffffffffffffffff1673ffffffffffffffffffffffffffffffffffffffff16815260200190815260200160002060008154809291906001019190505550614cf684614b2f565b15614d8257600660008573ffffffffffffffffffffffffffffffffffffffff1673ffffffffffffffffffffffffffffffffffffffff16815260200190815260200160002060008154809291906001900391905055506011600083815260200190815260200160002060006101000a81549073ffffffffffffffffffffffffffffffffffffffff02191690555b8273ffffffffffffffffffffffffffffffffffffffff168473ffffffffffffffffffffffffffffffffffffffff167fddf252ad1be2c89b69c2b068fc378daa952ba7f163c4a11628f55a4df523b3ef846040518082815260200191505060405180910390a350505050565b614df561502e565b600060e060405190810160405280898152602001888152602001878152602001868152602001858152602001600081526020018473ffffffffffffffffffffffffffffffffffffffff1681525091506001600f83908060018154018082558091505090600182039060005260206000209060090201600090919290919091506000820151816000019080519060200190614e90929190614f38565b506020820151816001019080519060200190614ead929190614f38565b5060408201518160020155606082015181600301556080820151816004015560a0820151816005015560c08201518160060160006101000a81548173ffffffffffffffffffffffffffffffffffffffff021916908373ffffffffffffffffffffffffffffffffffffffff1602179055505050039050614f2e60008483614bd4565b5050505050505050565b828054600181600116156101000203166002900490600052602060002090601f016020900481019282601f10614f7957805160ff1916838001178555614fa7565b82800160010185558215614fa7579182015b82811115614fa6578251825591602001919060010190614f8b565b5b509050614fb49190615082565b5090565b606060405190810160405280600073ffffffffffffffffffffffffffffffffffffffff16815260200160008152602001600081525090565b60e060405190810160405280600081526020016000815260200160008152602001600081526020016000815260200160008152602001600081525090565b60e060405190810160405280606081526020016060815260200160008152602001600081526020016000815260200160008152602001600073ffffffffffffffffffffffffffffffffffffffff1681525090565b6150a491905b808211156150a0576000816000905550600101615088565b5090565b905600a165627a7a7230582071fa666d6eca2074af88e07cbbe578319e0310025f4017bdc8260538c2a807020029",
  "source": "pragma solidity ^0.4.23;\nimport \"./ERC721.sol\";\nimport \"./SafeMath.sol\";\n\n/**\n * @title Spark World Cup Contract\n * @author zhicai\n */\n\ncontract SparkCup {\n\n  /**\n   * Private variables\n   */\n   uint256 private initialPrice = 0.01 ether;\n   uint256 private maxPrice = 200 ether;\n\n   // Profit of selling a team, 5% to developer, 25% to Prizes Pool, 70% to owner\n   uint256 private developerShare = 5;\n   uint256 private prizesPoolShare = 25;\n   uint256 private ownerShare = 70;\n   bool private alreadyCreatedTeam;\n   bool locked; // FOR MODIFIER\n   mapping (address => uint256) private ownerTeamCount;\n   mapping (uint256 => address) private teamOwners;\n   Prizes private prizes;\n   Team[] private teams;\n\n  /**\n   * Storage\n   */\n   mapping (address => uint256) public matchPrizeBank;\n   mapping (uint256 => address) public teamToApproved;\n   mapping(uint256 => Match) public matches;\n   address public contractModifier;\n   address public developer;\n\n  /**\n   * Constructor\n   * Define contract MODIFIER, developer address.\n   * Initialize prize values.\n   */\n   constructor() public {\n      contractModifier = msg.sender;\n      developer = msg.sender;\n      prizes.last16PoolTotal = 0;\n      prizes.last16Locked = false;\n      prizes.quarterPoolTotal = 0;\n      prizes.quarterLocked = false;\n      prizes.semiPoolTotal = 0;\n      prizes.semiLocked = false;\n      prizes.finalPoolTotal = 0;\n   }\n\n  /**\n   * Data structure\n   */\n\n   // Betting WorldCup\n   struct Better {\n       address add;\n       uint256 investedAmount;\n       uint256 bet; //1->player1 win, 2->player2 win, 3->tie\n   }\n\n   struct Match {\n       uint256 matchId;\n       uint256 startTime;\n       uint256 teamId1;\n       uint256 teamId2;\n       uint256 result; //0->nothing, 1->player1 win, 2->player2 win, 3->tie\n       uint256 investPool;\n       uint256 bettersCount;\n       mapping(uint256 => Better) betters;\n   }\n\n   struct Team {\n      string name;\n      string code;\n      uint256 price;\n      uint256 lastSoldPrice;\n      uint256 txCount;\n      uint256 rewardCount;\n      address owner;\n      mapping (uint256 => TeamTxRecord) teamTxRecords;\n      mapping (uint256 => TeamReward) teamRewards;\n   }\n\n   struct TeamTxRecord {\n      uint256 price;\n      uint256 time;\n      address from;\n      address to;\n   }\n\n   struct TeamReward {\n      uint256 amount;\n      uint256 rewardTime;\n      address to;\n      string stage;\n   }\n\n   struct Prizes {\n       uint256 last16PoolTotal;\n       bool last16Locked;\n       uint256 quarterPoolTotal;\n       bool quarterLocked;\n       uint256 semiPoolTotal;\n       bool semiLocked;\n       uint256 finalPoolTotal;\n   }\n\n   /**\n    * Modifier\n    */\n    modifier onlyContractModifier() {\n        require(msg.sender == contractModifier);\n        _;\n    }\n\n    modifier noReentrancy() {\n        if(locked) revert();\n\n        locked = true;\n\n        _;\n\n        locked = false;\n    }\n\n    // Events\n    event Transfer(address indexed from, address indexed to, uint256 tokenId);\n    event Approval(address indexed owner, address indexed approved, uint256 tokenId);\n    event TeamSold(uint256 indexed team, address indexed from, uint256 oldPrice, address indexed to, uint256 newPrice, uint256 tradingTime, uint256 balance);\n    event test_value(uint256 indexed value1);\n\n   /**\n    * Public functions\n    */\n    // Fallback\n    function () public payable {\n        revert();\n    }\n\n    function addMatch(uint256 matchId, uint256 startTime, uint256 teamId1, uint256 teamId2) public onlyContractModifier returns (bool result) {\n       require(startTime > now);\n       require(matchId >= 0);\n       require(teamId1 >= 0 && teamId1 <= 32);\n       require(teamId2 >= 0 && teamId2 <= 32);\n\n       Match memory _match = Match(matchId, startTime, teamId1, teamId2, 0, 0, 0);\n       matches[matchId] = _match;\n\n       return true;\n   }\n\n   function betMatch(uint256 matchId, uint256 bet) public payable returns(bool result) {\n       //0->nothing, 1->player1 win, 2->player2 win, 3->tie\n       require (matchId >= 0 && bet > 0 && bet < 4);\n       require (msg.value > 0);\n       require (msg.sender != developer);\n\n       Match storage _match = matches[matchId];\n       require(_match.result == 0 && _match.startTime > now);\n\n       Better storage better = _match.betters[_match.bettersCount];\n       better.add = msg.sender;\n       better.investedAmount = msg.value;\n       better.bet = bet;\n\n       _match.investPool = SafeMath.add(_match.investPool, msg.value);\n       _match.bettersCount++;\n\n       return true;\n  }\n\n  function getMatch(uint256 matchId) public constant returns (uint256[]) {\n      require(matchId >= 0);\n      Match storage _match = matches[matchId];\n      uint256[] memory data = new uint256[](7);\n      data[0] = _match.matchId;\n      data[1] = _match.startTime;\n      data[2] = _match.teamId1;\n      data[3] = _match.teamId2;\n      data[4] = _match.result;\n      data[5] = _match.investPool;\n      data[6] = _match.bettersCount;\n      return data;\n  }\n\n   // For testing\n   function getNow() public constant returns(uint256) {\n      return now;\n   }\n\n   // Set match result and Distribute Prizes\n   function setMatchAndPrize(uint256 matchId, uint256 result) public onlyContractModifier returns(bool) {\n       require(matchId >= 0);\n       require(result > 0 && result < 4);\n       Match storage _match = matches[matchId];\n\n       require(_match.result == 0);\n       _match.result = result;\n\n       // Winners profit = losers invested\n       // Winner profit = (winner invest / all winners invested) * losers invested\n       uint256 losersInvested = 0;\n       uint256 i = 0;\n       emit test_value(_match.bettersCount);\n\n       for(i = 0; i < _match.bettersCount; i++) {\n            Better memory better = _match.betters[i];\n            if(better.bet != result && better.investedAmount > 0){\n                losersInvested = SafeMath.add(losersInvested, better.investedAmount);\n            }\n        }\n\n        if(losersInvested > 0 && _match.investPool > losersInvested) {\n            // Team owner profit 15%, prize pool 5%\n            uint256 onePercent = SafeMath.div(losersInvested, 100);\n            //uint256 teamOwnerProfit = SafeMath.mul(onePercent, 15);\n            //uint256 prizePoolProfit = SafeMath.mul(onePercent, 5);\n            uint256 winnersProfit = SafeMath.mul(onePercent, 80);\n            uint256 winnersInvested = SafeMath.sub(_match.investPool, losersInvested);\n\n            // TODO\n            //address teamOwner = teams[_match.teamId1].owner;\n            //teamOwner.transfer(teamOwnerProfit);\n\n            i = 0;\n            uint256 share = 0;\n            uint256 gain = 0;\n\n            for(i = 0; i < _match.bettersCount; i++) {\n                Better memory _better = _match.betters[i];\n\n                if(_better.bet == result && _better.investedAmount > 0){\n\n                    share = SafeMath.div(_better.investedAmount, winnersInvested);\n                    gain = SafeMath.add(_better.investedAmount, SafeMath.mul(winnersProfit, share));\n                    matchPrizeBank[_better.add] = SafeMath.add(matchPrizeBank[_better.add], gain);\n                    // _better.add.transfer(gain);\n                }\n            }\n        }\n\n        return true;\n   }\n\n    function matchWithdraw() external noReentrancy returns(bool) {\n      uint256 refund = matchPrizeBank[msg.sender];\n      require (refund > 0);\n      matchPrizeBank[msg.sender] = 0;\n\n      //TODO\n      msg.sender.transfer(refund);\n      //if(!msg.sender.call.gas(3000000).value(refund)) throw;\n\n      return true;\n    }\n\n    function getBalance() public view returns (uint256 _balance) {\n      _balance = matchPrizeBank[msg.sender];\n    }\n\n    function getContractBalance() public view returns (uint256 _contractBalance) {\n        _contractBalance = address(this).balance;\n    }\n\n    /**\n     * Buying a team, double the price until 10 ether\n     */\n    function buyTeam(uint256 tokenId) public payable {\n        address currentOwner = teams[tokenId].owner;\n        uint256 currentPrice = teams[tokenId].price;\n\n        require(currentOwner != msg.sender);\n        //require(msg.sender != developer);\n        require(msg.value >= currentPrice);\n\n        Team storage team = teams[tokenId];\n\n        uint256 newPrice = currentPrice;\n        if(currentPrice < maxPrice) {\n            newPrice = SafeMath.div(SafeMath.mul(currentPrice, 200), 100);\n        }\n\n        // emit test_value(newPrice); // log the current value\n        // Payments: 5% to developer, 25% to Prizes Pool, 70% to owner\n        uint256 profit = SafeMath.sub(msg.value, team.lastSoldPrice);\n        emit test_value(profit);\n\n        uint256 onePercent = SafeMath.div(profit, 100);\n        emit test_value(onePercent);\n\n        uint256 developerProfit = SafeMath.mul(onePercent, developerShare);\n        emit test_value(developerProfit);\n\n        uint256 prizesPoolProfit = SafeMath.mul(onePercent, prizesPoolShare);\n        emit test_value(prizesPoolProfit);\n\n        uint256 ownerProfit = SafeMath.add(SafeMath.mul(onePercent, ownerShare), team.lastSoldPrice);\n        emit test_value(ownerProfit);\n\n        // Paying developer\n        matchPrizeBank[developer] = SafeMath.add(matchPrizeBank[developer], developerProfit);\n        emit test_value(matchPrizeBank[developer]);\n        // developer.transfer(developerProfit);\n\n        // Paying owner\n        matchPrizeBank[currentOwner] = SafeMath.add(matchPrizeBank[currentOwner], ownerProfit);\n        emit test_value(matchPrizeBank[currentOwner]);\n        // currentOwner.transfer(ownerProfit);\n\n        // Calculating each Prize Pool\n        uint256 slice = 0;\n        if(!prizes.last16Locked) {\n            slice = SafeMath.div(prizesPoolProfit, 4);\n            prizes.last16PoolTotal += slice;\n            prizes.quarterPoolTotal += slice;\n            prizes.semiPoolTotal += slice;\n            prizes.finalPoolTotal += slice;\n        } else if(!prizes.quarterLocked){\n            slice = SafeMath.div(prizesPoolProfit, 3);\n            prizes.quarterPoolTotal += slice;\n            prizes.semiPoolTotal += slice;\n            prizes.finalPoolTotal += slice;\n        } else if(!prizes.semiLocked){\n            slice = SafeMath.div(prizesPoolProfit, 2);\n            prizes.semiPoolTotal += slice;\n            prizes.finalPoolTotal += slice;\n        } else {\n            prizes.finalPoolTotal += prizesPoolProfit;\n        }\n\n        // Update tx record\n        team.owner = msg.sender;\n        team.price = newPrice;\n        team.lastSoldPrice = currentPrice;\n        team.teamTxRecords[team.txCount++] = TeamTxRecord ({\n            price: currentPrice,\n            time: uint256(now),\n            from: currentOwner,\n            to: msg.sender\n        });\n\n        //_transfer(teams[tokenId].owner, msg.sender, tokenId);\n        ownerTeamCount[msg.sender]++;\n\n        emit TeamSold(tokenId, currentOwner, currentPrice, msg.sender, newPrice, uint256(now), address(this).balance);\n\n    }\n\n    function getTeam(uint256 tokenId) public view returns (\n        uint256 _tokenId,\n        string _name,\n        string _code,\n        uint256 _price,\n        uint256 _lastSoldPrice,\n        uint256 _txCount,\n        uint256 _rewardCount,\n        address _owner)\n    {\n        require(tokenId < teams.length);\n        Team storage team = teams[tokenId];\n        _tokenId = tokenId;\n        _name = team.name;\n        _code = team.code;\n        _price = team.price;\n        _lastSoldPrice = team.lastSoldPrice;\n        _txCount = team.txCount;\n        _rewardCount = team.rewardCount;\n        _owner = team.owner;\n     }\n\n    function getTeamTxRecords(uint256 tokenId, uint256 recordId) public view returns (\n        uint256 price,\n        uint256 time,\n        address from,\n        address to)\n    {\n        require(tokenId < teams.length);\n        require(recordId < teams[tokenId].txCount);\n\n        TeamTxRecord storage record = teams[tokenId].teamTxRecords[recordId];\n        price = record.price;\n        time = record.time;\n        from = record.from;\n        to = record.to;\n    }\n\n    function getPrizePool() public view returns (\n        uint256 last16PoolTotal,\n        bool last16Locked,\n        uint256 quarterPoolTotal,\n        bool quarterLocked,\n        uint256 semiPoolTotal,\n        bool semiLocked,\n        uint256 finalPoolTotal)\n    {\n        last16PoolTotal = prizes.last16PoolTotal;\n        last16Locked = prizes.last16Locked;\n        quarterPoolTotal = prizes.quarterPoolTotal;\n        quarterLocked = prizes.quarterLocked;\n        semiLocked = prizes.semiLocked;\n        semiPoolTotal = prizes.semiPoolTotal;\n        finalPoolTotal = prizes.finalPoolTotal;\n    }\n\n    // Lock 16, fund wont goes to the 16 pool anymore\n    function lock16Fund() public onlyContractModifier {\n        prizes.last16Locked = true;\n    }\n\n    // Distribute 16 prizes pool, 8 winners\n    function distribute16PrizeWinners (uint256 teamToken) public onlyContractModifier {\n        uint256 slice = SafeMath.div(prizes.last16PoolTotal, 8);\n\n        Team storage team = teams[teamToken];\n        require(team.rewardCount == 0);\n\n        // transfer to account\n        // team.owner.transfer(slice);\n        matchPrizeBank[team.owner] = SafeMath.add(matchPrizeBank[team.owner], slice);\n\n        team.teamRewards[team.rewardCount++] = TeamReward({\n            amount: slice,\n            rewardTime: uint256(now),\n            to: team.owner,\n            stage: \"Sixteen Round Winner\"\n        });\n    }\n\n    // Distribute Quarter prizes pool, 4 winners\n    function distributeQuarterPrizeWinners (uint256 teamToken) public onlyContractModifier {\n        uint256 slice = SafeMath.div(prizes.quarterPoolTotal, 4);\n\n        Team storage team = teams[teamToken];\n        require(team.rewardCount == 1);\n\n        // transfer to account\n        // team.owner.transfer(slice);\n        matchPrizeBank[team.owner] = SafeMath.add(matchPrizeBank[team.owner], slice);\n\n        team.teamRewards[team.rewardCount++] = TeamReward({\n            amount: slice,\n            rewardTime: uint256(now),\n            to: team.owner,\n            stage: \"Quarter Winner\"\n        });\n    }\n\n    // Distribute Semi-Quarter prizes pool, 2 winners\n    function distributeSemiPrizeWinners (uint256 teamToken) public onlyContractModifier {\n        uint256 slice = SafeMath.div(prizes.semiPoolTotal, 2);\n\n        Team storage team = teams[teamToken];\n        require(team.rewardCount == 2);\n\n        // transfer to account\n        // team.owner.transfer(slice);\n        matchPrizeBank[team.owner] = SafeMath.add(matchPrizeBank[team.owner], slice);\n\n        team.teamRewards[team.rewardCount++] = TeamReward({\n            amount: slice,\n            rewardTime: uint256(now),\n            to: team.owner,\n            stage: \"Semi-Quarter Winner\"\n        });\n    }\n    // Distribute Final prizes pool, 1 winners\n    function distributeFinalPrizeWinners (uint256 teamToken) public onlyContractModifier {\n        Team storage team = teams[teamToken];\n        require(team.rewardCount == 3);\n\n        // team.owner.transfer(prizes.finalPoolTotal);\n        matchPrizeBank[team.owner] = SafeMath.add(matchPrizeBank[team.owner], prizes.finalPoolTotal);\n\n        team.teamRewards[team.rewardCount++] = TeamReward({\n            amount: prizes.finalPoolTotal,\n            rewardTime: uint256(now),\n            to: team.owner,\n            stage: \"Final Winner\"\n        });\n    }\n\n    // Lock Quarter, fund wont goes to the Quarter pool anymore\n    function lockQuarterFund() public onlyContractModifier {\n        prizes.quarterLocked = true;\n    }\n\n    // Lock Semi, fund wont goes to the Semi pool anymore\n    function lockSemiFund() public onlyContractModifier {\n        prizes.semiLocked = true;\n    }\n\n    /// @notice Count all NFTs assigned to an owner\n    /// @dev NFTs assigned to the zero address are considered invalid, and this\n    ///  function throws for queries about the zero address.\n    /// @param _owner An address for whom to query the balance\n    /// @return The number of NFTs owned by `_owner`, possibly zero\n   function balanceOf(address _owner) public view returns (uint256 balance) {\n      return ownerTeamCount[_owner];\n   }\n\n   function implementsERC721() public pure returns (bool) {\n      return true;\n   }\n\n   function tokenName() public pure returns (string) {\n       return \"SparkCupToken\";\n   }\n\n   function symbol() public pure returns (string) {\n       return \"SCT\";\n   }\n\n    /// @notice Find the owner of an NFT\n    /// @param _tokenId The identifier for an NFT\n    /// @dev NFTs assigned to zero address are considered invalid, and queries\n    ///  about them do throw.\n    /// @return The address of the owner of the NFT\n    function ownerOf(uint256 _tokenId) public view returns (address owner) {\n      owner = teamOwners[_tokenId];\n      require(owner != address(0));\n      return owner;\n    }\n\n\n    function takeOwnership(uint256 _tokenId) public {\n      address to = msg.sender;\n      address from = teamOwners[_tokenId];\n      require(from != to);\n      require(_addressNotNull(to));\n      require(_approved(to, _tokenId));\n      _transfer(from, to, _tokenId);\n    }\n\n    function totalSupply() public view returns (uint256 total) {\n      return teams.length;\n    }\n\n    function transferFrom(address _from, address _to, uint256 _tokenId) public {\n      // do something here...\n      require(msg.sender == teams[_tokenId].owner);\n      require(_from != _to);\n      require(_addressNotNull(_to));\n      require(_approved(_to, _tokenId));\n      _transfer(_from, _to, _tokenId);\n    }\n\n    function transfer(address _to, uint256 _tokenId) public {\n      // do something here...\n      require(msg.sender == teams[_tokenId].owner);\n      require(_addressNotNull(_to));\n      _transfer(msg.sender, _to, _tokenId);\n    }\n\n   function approve(address _to, uint256 _tokenId) public {\n       require(_owns(msg.sender, _tokenId));\n       teamToApproved[_tokenId] = _to;\n       emit Approval(msg.sender, _to, _tokenId);\n    }\n\n    function destroy() public onlyContractModifier {\n \t    selfdestruct(contractModifier);\n    }\n\n\n    function createTeams() public onlyContractModifier {\n        require(!alreadyCreatedTeam);\n\n        _createTeam(\"Russia\", \"RUS\", initialPrice, 0, 0, developer);\n        _createTeam(\"Saudi Arabia\", \"KSA\", initialPrice, 0, 0, developer);\n        _createTeam(\"Egypt\", \"EGY\", initialPrice, 0, 0, developer);\n        _createTeam(\"Uruguay\", \"URU\", initialPrice, 0, 0, developer);\n        _createTeam(\"Portugal\", \"POR\", initialPrice, 0, 0, developer);\n        _createTeam(\"Spain\", \"SPA\", initialPrice, 0, 0, developer);\n        _createTeam(\"Morocco\", \"MOR\", initialPrice, 0, 0, developer);\n        _createTeam(\"Iran\", \"IRN\", initialPrice, 0, 0, developer);\n        _createTeam(\"France\", \"FRA\", initialPrice, 0, 0, developer);\n        _createTeam(\"Australia\", \"AUS\", initialPrice, 0, 0, developer);\n        _createTeam(\"Peru\", \"PER\", initialPrice, 0, 0, developer);\n        _createTeam(\"Denmark\", \"DEN\", initialPrice, 0, 0, developer);\n        _createTeam(\"Argentina\", \"ARG\", initialPrice, 0, 0, developer);\n        _createTeam(\"Iceland\", \"ICE\", initialPrice, 0, 0, developer);\n        _createTeam(\"Croatia\", \"CRO\", initialPrice, 0, 0, developer);\n        _createTeam(\"Nigeria\", \"NGA\", initialPrice, 0, 0, developer);\n        _createTeam(\"Brazil\", \"BRZ\", initialPrice, 0, 0, developer);\n        _createTeam(\"Switzerland\", \"SWI\", initialPrice, 0, 0, developer);\n        _createTeam(\"Costa Rica\", \"CRC\", initialPrice, 0, 0, developer);\n        _createTeam(\"Serbia\", \"SER\", initialPrice, 0, 0, developer);\n        _createTeam(\"Germany\", \"GER\", initialPrice, 0, 0, developer);\n        _createTeam(\"Mexico\", \"MEX\", initialPrice, 0, 0, developer);\n        _createTeam(\"Sweden\", \"SWE\", initialPrice, 0, 0, developer);\n        _createTeam(\"South Korea\", \"KOR\", initialPrice, 0, 0, developer);\n        _createTeam(\"Belgium\", \"BEL\", initialPrice, 0, 0, developer);\n        _createTeam(\"Panama\", \"PAN\", initialPrice, 0, 0, developer);\n        _createTeam(\"Tunisia\", \"TUN\", initialPrice, 0, 0, developer);\n        _createTeam(\"England\", \"ENG\", initialPrice, 0, 0, developer);\n        _createTeam(\"Poland\", \"POL\", initialPrice, 0, 0, developer);\n        _createTeam(\"Senegal\", \"SEN\", initialPrice, 0, 0, developer);\n        _createTeam(\"Colombia\", \"COL\", initialPrice, 0, 0, developer);\n        _createTeam(\"Japan\", \"JPN\", initialPrice, 0, 0, developer);\n\n        alreadyCreatedTeam = true;\n    }\n\n  /**\n    * Private functions\n    */\n\n    function _createTeam(string name, string code, uint256 price, uint256 lastSoldPrice, uint256 txCount, address owner) private {\n        Team memory team = Team(name, code, price, lastSoldPrice, txCount, 0, owner);\n\n        // token ID\n        // push return number of teams, -1 for index\n        uint256 teamId = teams.push(team) - 1;\n\n        // Transfer owner will be developer's address\n        _transfer(address(0), owner, teamId);\n    }\n\n    function _owns(address _claimant, uint256 _tokenId) private view returns (bool) {\n        return _claimant == teamOwners[_tokenId];\n    }\n\n    function _transfer(address from, address to, uint256 tokenId) private {\n        require (tokenId <= teams.length);\n\n        // Team storage ref.\n        // teams[tokenId] = to;\n        Team storage team = teams[tokenId];\n        team.owner = to;\n        teamOwners[tokenId] = to;\n\n        ownerTeamCount[to]++;\n        if (_addressNotNull(from)) {\n            ownerTeamCount[from]--;\n            delete teamToApproved[tokenId];\n        }\n        // Event\n        emit Transfer(from, to, tokenId);\n    }\n\n    function _approved(address _to, uint256 _tokenId) private view returns (bool) {\n        return teamToApproved[_tokenId] == _to;\n    }\n\n    function _addressNotNull(address _address) private pure returns (bool) {\n        return _address != address(0);\n    }\n\n    // FOR TESTING ONLY\n    function _createMatch() public onlyContractModifier returns(bool) {\n        addMatch(0, 1529074800, 1, 0);\n        addMatch(1, 1529064000, 3, 2);\n        addMatch(2, 1529074800, 6, 7);\n        addMatch(3, 1529085600, 5, 4);\n        addMatch(4, 1529143200, 9, 8);\n        addMatch(5, 1529154000, 13, 12);\n        addMatch(6, 1529164800, 11, 10);\n        addMatch(7, 1529175600, 15, 14);\n        addMatch(8, 1529236800, 19, 18);\n        addMatch(9, 1529247600, 21, 20);\n        addMatch(10, 1529258400, 17, 16);\n        addMatch(11, 1529323200, 23, 22);\n        addMatch(12, 1529334000, 24, 25);\n        addMatch(13, 1529344800, 27, 26);\n        addMatch(14, 1529409600, 31, 30);\n        addMatch(15, 1529420400, 29, 28);\n        addMatch(16, 1529431200, 2, 0);\n        addMatch(17, 1529496000, 6, 4);\n        addMatch(18, 1529506800, 1, 3);\n    }\n}\n",
  "sourcePath": "/Users/zhicai/projects/SmartContractProject/black_friday/spark-worldcup/contracts/SparkCup.sol",
  "compiler": {
    "name": "solc",
    "version": "0.4.23+commit.124ca40d.Emscripten.clang"
  },
  "schemaVersion": "2.0.0",
  "updatedAt": "2018-06-15T02:44:35.919Z"
}